{
  "_format": "hh-sol-artifact-1",
  "contractName": "DataProvider",
  "sourceName": "contracts/DataProvider/DataProvider.sol",
  "abi": [
    {
      "inputs": [
        {
          "internalType": "contract ILendingPoolAddressesProvider",
          "name": "addressesProvider",
          "type": "address"
        }
      ],
      "stateMutability": "nonpayable",
      "type": "constructor"
    },
    {
      "inputs": [],
      "name": "ADDRESSES_PROVIDER",
      "outputs": [
        {
          "internalType": "contract ILendingPoolAddressesProvider",
          "name": "",
          "type": "address"
        }
      ],
      "stateMutability": "view",
      "type": "function"
    },
    {
      "inputs": [],
      "name": "getAddressesProvider",
      "outputs": [
        {
          "internalType": "contract ILendingPoolAddressesProvider",
          "name": "",
          "type": "address"
        }
      ],
      "stateMutability": "view",
      "type": "function"
    },
    {
      "inputs": [
        {
          "internalType": "uint256",
          "name": "id",
          "type": "uint256"
        }
      ],
      "name": "getAllATokens",
      "outputs": [
        {
          "components": [
            {
              "internalType": "string",
              "name": "symbol",
              "type": "string"
            },
            {
              "internalType": "address",
              "name": "tokenAddress",
              "type": "address"
            }
          ],
          "internalType": "struct IDataProvider.TokenData[]",
          "name": "",
          "type": "tuple[]"
        }
      ],
      "stateMutability": "view",
      "type": "function"
    },
    {
      "inputs": [
        {
          "internalType": "uint256",
          "name": "id",
          "type": "uint256"
        }
      ],
      "name": "getAllReservesTokens",
      "outputs": [
        {
          "components": [
            {
              "internalType": "string",
              "name": "symbol",
              "type": "string"
            },
            {
              "internalType": "address",
              "name": "tokenAddress",
              "type": "address"
            }
          ],
          "internalType": "struct IDataProvider.TokenData[]",
          "name": "",
          "type": "tuple[]"
        }
      ],
      "stateMutability": "view",
      "type": "function"
    },
    {
      "inputs": [
        {
          "internalType": "uint256",
          "name": "id",
          "type": "uint256"
        },
        {
          "internalType": "address",
          "name": "asset",
          "type": "address"
        }
      ],
      "name": "getReserveConfigurationData",
      "outputs": [
        {
          "components": [
            {
              "internalType": "uint256",
              "name": "ltv",
              "type": "uint256"
            },
            {
              "internalType": "uint256",
              "name": "liquidationThreshold",
              "type": "uint256"
            },
            {
              "internalType": "uint256",
              "name": "liquidationBonus",
              "type": "uint256"
            },
            {
              "internalType": "uint8",
              "name": "decimals",
              "type": "uint8"
            },
            {
              "internalType": "bool",
              "name": "active",
              "type": "bool"
            },
            {
              "internalType": "bool",
              "name": "frozen",
              "type": "bool"
            },
            {
              "internalType": "bool",
              "name": "borrowingEnabled",
              "type": "bool"
            },
            {
              "internalType": "uint256",
              "name": "reserveFactor",
              "type": "uint256"
            }
          ],
          "internalType": "struct DataTypes.ReserveConfiguration",
          "name": "configuration",
          "type": "tuple"
        }
      ],
      "stateMutability": "view",
      "type": "function"
    },
    {
      "inputs": [
        {
          "internalType": "uint256",
          "name": "id",
          "type": "uint256"
        },
        {
          "internalType": "address",
          "name": "asset",
          "type": "address"
        }
      ],
      "name": "getReserveData",
      "outputs": [
        {
          "components": [
            {
              "components": [
                {
                  "internalType": "uint256",
                  "name": "ltv",
                  "type": "uint256"
                },
                {
                  "internalType": "uint256",
                  "name": "liquidationThreshold",
                  "type": "uint256"
                },
                {
                  "internalType": "uint256",
                  "name": "liquidationBonus",
                  "type": "uint256"
                },
                {
                  "internalType": "uint8",
                  "name": "decimals",
                  "type": "uint8"
                },
                {
                  "internalType": "bool",
                  "name": "active",
                  "type": "bool"
                },
                {
                  "internalType": "bool",
                  "name": "frozen",
                  "type": "bool"
                },
                {
                  "internalType": "bool",
                  "name": "borrowingEnabled",
                  "type": "bool"
                },
                {
                  "internalType": "uint256",
                  "name": "reserveFactor",
                  "type": "uint256"
                }
              ],
              "internalType": "struct DataTypes.ReserveConfiguration",
              "name": "configuration",
              "type": "tuple"
            },
            {
              "internalType": "uint128",
              "name": "liquidityIndex",
              "type": "uint128"
            },
            {
              "internalType": "uint128",
              "name": "borrowIndex",
              "type": "uint128"
            },
            {
              "internalType": "uint128",
              "name": "currentLiquidityRate",
              "type": "uint128"
            },
            {
              "internalType": "uint128",
              "name": "currentBorrowRate",
              "type": "uint128"
            },
            {
              "internalType": "uint40",
              "name": "lastUpdateTimestamp",
              "type": "uint40"
            },
            {
              "internalType": "address",
              "name": "kTokenAddress",
              "type": "address"
            },
            {
              "internalType": "address",
              "name": "dTokenAddress",
              "type": "address"
            },
            {
              "internalType": "address",
              "name": "interestRateStrategyAddress",
              "type": "address"
            },
            {
              "internalType": "uint256",
              "name": "id",
              "type": "uint256"
            }
          ],
          "internalType": "struct DataTypes.ReserveData",
          "name": "",
          "type": "tuple"
        }
      ],
      "stateMutability": "view",
      "type": "function"
    },
    {
      "inputs": [
        {
          "internalType": "uint256",
          "name": "id",
          "type": "uint256"
        },
        {
          "internalType": "address",
          "name": "asset",
          "type": "address"
        }
      ],
      "name": "getReserveTokensAddresses",
      "outputs": [
        {
          "internalType": "address",
          "name": "aTokenAddress",
          "type": "address"
        },
        {
          "internalType": "address",
          "name": "variableDebtTokenAddress",
          "type": "address"
        }
      ],
      "stateMutability": "view",
      "type": "function"
    },
    {
      "inputs": [
        {
          "internalType": "uint256",
          "name": "id",
          "type": "uint256"
        },
        {
          "internalType": "address",
          "name": "asset",
          "type": "address"
        },
        {
          "internalType": "address",
          "name": "user",
          "type": "address"
        }
      ],
      "name": "getUserReserveData",
      "outputs": [
        {
          "internalType": "uint256",
          "name": "currentKTokenBalance",
          "type": "uint256"
        },
        {
          "internalType": "uint256",
          "name": "currentVariableDebt",
          "type": "uint256"
        },
        {
          "internalType": "uint256",
          "name": "scaledVariableDebt",
          "type": "uint256"
        },
        {
          "internalType": "uint256",
          "name": "liquidityRate",
          "type": "uint256"
        },
        {
          "internalType": "bool",
          "name": "usageAsCollateralEnabled",
          "type": "bool"
        }
      ],
      "stateMutability": "view",
      "type": "function"
    }
  ],
  "bytecode": "0x60a060405234801561001057600080fd5b506040516115c63803806115c683398101604081905261002f91610040565b6001600160a01b0316608052610070565b60006020828403121561005257600080fd5b81516001600160a01b038116811461006957600080fd5b9392505050565b60805161150b6100bb6000396000818160820152818161019f015281816101e4015281816102f8015281816105b6015281816106c6015281816109020152610c04015261150b6000f3fe608060405234801561001057600080fd5b50600436106100785760003560e01c80630542975c1461007d5780631da35081146100ba578063352b94d9146100da5780635a591f59146100fa57806384d0a4cb1461011a578063b21f3e181461012d578063dd46b47c1461016a578063fe65acfe1461019d575b600080fd5b6100a47f000000000000000000000000000000000000000000000000000000000000000081565b6040516100b19190610dc4565b60405180910390f35b6100cd6100c8366004610df0565b6101c3565b6040516100b19190610e91565b6100ed6100e8366004610f5c565b6102d4565b6040516100b19190610fa5565b61010d610108366004610df0565b610595565b6040516100b19190611038565b6100ed610128366004610f5c565b6106a2565b61014061013b366004611047565b6108f7565b6040805195865260208601949094529284019190915260608301521515608082015260a0016100b1565b61017d610178366004610df0565b610bfd565b604080516001600160a01b039384168152929091166020830152016100b1565b7f00000000000000000000000000000000000000000000000000000000000000006100a4565b6101cb610d1b565b604051630706547d60e21b8152600481018490526000907f00000000000000000000000000000000000000000000000000000000000000006001600160a01b031690631c1951f4906024016040805180830381865afa158015610232573d6000803e3d6000fd5b505050506040513d601f19601f8201168201806040525081019061025691906110a9565b5090506000816001600160a01b03166335ea6a75856040518263ffffffff1660e01b81526004016102879190610dc4565b61022060405180830381865afa1580156102a5573d6000803e3d6000fd5b505050506040513d601f19601f820116820180604052508101906102c9919061122d565b925050505b92915050565b604051630706547d60e21b8152600481018290526060906000906001600160a01b037f00000000000000000000000000000000000000000000000000000000000000001690631c1951f4906024016040805180830381865afa15801561033e573d6000803e3d6000fd5b505050506040513d601f19601f8201168201806040525081019061036291906110a9565b50905060008190506000816001600160a01b031663d1946dbc6040518163ffffffff1660e01b8152600401600060405180830381865afa1580156103aa573d6000803e3d6000fd5b505050506040513d6000823e601f3d908101601f191682016040526103d291908101906112fb565b9050600081516001600160401b038111156103ef576103ef6110de565b60405190808252806020026020018201604052801561043557816020015b60408051808201909152606081526000602082015281526020019060019003908161040d5790505b50905060005b825181101561058b576000846001600160a01b03166335ea6a75858481518110610467576104676113ac565b60200260200101516040518263ffffffff1660e01b815260040161048b9190610dc4565b61022060405180830381865afa1580156104a9573d6000803e3d6000fd5b505050506040513d601f19601f820116820180604052508101906104cd919061122d565b905060405180604001604052808260c001516001600160a01b03166395d89b416040518163ffffffff1660e01b8152600401600060405180830381865afa15801561051c573d6000803e3d6000fd5b505050506040513d6000823e601f3d908101601f1916820160405261054491908101906113c2565b81526020018260c001516001600160a01b031681525083838151811061056c5761056c6113ac565b602002602001018190525050808061058390611455565b91505061043b565b5095945050505050565b61059d610d76565b604051630706547d60e21b8152600481018490526000907f00000000000000000000000000000000000000000000000000000000000000006001600160a01b031690631c1951f4906024016040805180830381865afa158015610604573d6000803e3d6000fd5b505050506040513d601f19601f8201168201806040525081019061062891906110a9565b5060405163c44b11f760e01b81529091506001600160a01b0382169063c44b11f790610658908690600401610dc4565b61010060405180830381865afa158015610676573d6000803e3d6000fd5b505050506040513d601f19601f8201168201806040525081019061069a919061147c565b949350505050565b604051630706547d60e21b8152600481018290526060906000906001600160a01b037f00000000000000000000000000000000000000000000000000000000000000001690631c1951f4906024016040805180830381865afa15801561070c573d6000803e3d6000fd5b505050506040513d601f19601f8201168201806040525081019061073091906110a9565b50905060008190506000816001600160a01b031663d1946dbc6040518163ffffffff1660e01b8152600401600060405180830381865afa158015610778573d6000803e3d6000fd5b505050506040513d6000823e601f3d908101601f191682016040526107a091908101906112fb565b9050600081516001600160401b038111156107bd576107bd6110de565b60405190808252806020026020018201604052801561080357816020015b6040805180820190915260608152600060208201528152602001906001900390816107db5790505b50905060005b825181101561058b57604051806040016040528084838151811061082f5761082f6113ac565b60200260200101516001600160a01b03166395d89b416040518163ffffffff1660e01b8152600401600060405180830381865afa158015610874573d6000803e3d6000fd5b505050506040513d6000823e601f3d908101601f1916820160405261089c91908101906113c2565b81526020018483815181106108b3576108b36113ac565b60200260200101516001600160a01b03168152508282815181106108d9576108d96113ac565b602002602001018190525080806108ef90611455565b915050610809565b6000806000806000807f00000000000000000000000000000000000000000000000000000000000000006001600160a01b0316631c1951f48a6040518263ffffffff1660e01b815260040161094e91815260200190565b6040805180830381865afa15801561096a573d6000803e3d6000fd5b505050506040513d601f19601f8201168201806040525081019061098e91906110a9565b5090506000816001600160a01b03166335ea6a758a6040518263ffffffff1660e01b81526004016109bf9190610dc4565b61022060405180830381865afa1580156109dd573d6000803e3d6000fd5b505050506040513d601f19601f82011682018060405250810190610a01919061122d565b610120810151604051639a62d6b760e01b81526001600160a01b038b81166004830152602482019290925291925060009190841690639a62d6b7906044016040805180830381865afa158015610a5b573d6000803e3d6000fd5b505050506040513d601f19601f82011682018060405250810190610a7f91906114a0565b5060c08301516040516370a0823160e01b81529192506001600160a01b0316906370a0823190610ab3908c90600401610dc4565b602060405180830381865afa158015610ad0573d6000803e3d6000fd5b505050506040513d601f19601f82011682018060405250810190610af491906114bc565b60e08301516040516370a0823160e01b81529199506001600160a01b0316906370a0823190610b27908c90600401610dc4565b602060405180830381865afa158015610b44573d6000803e3d6000fd5b505050506040513d601f19601f82011682018060405250810190610b6891906114bc565b60e0830151604051630ed1279f60e11b81529198506001600160a01b031690631da24f3e90610b9b908c90600401610dc4565b602060405180830381865afa158015610bb8573d6000803e3d6000fd5b505050506040513d601f19601f82011682018060405250810190610bdc91906114bc565b606090920151979b969a509098506001600160801b03909616965050505050565b60008060007f00000000000000000000000000000000000000000000000000000000000000006001600160a01b0316631c1951f4866040518263ffffffff1660e01b8152600401610c5091815260200190565b6040805180830381865afa158015610c6c573d6000803e3d6000fd5b505050506040513d601f19601f82011682018060405250810190610c9091906110a9565b5090506000816001600160a01b03166335ea6a75866040518263ffffffff1660e01b8152600401610cc19190610dc4565b61022060405180830381865afa158015610cdf573d6000803e3d6000fd5b505050506040513d601f19601f82011682018060405250810190610d03919061122d565b60c081015160e0909101519097909650945050505050565b604051806101400160405280610d2f610d76565b815260006020820181905260408201819052606082018190526080820181905260a0820181905260c0820181905260e0820181905261010082018190526101209091015290565b604051806101000160405280600081526020016000815260200160008152602001600060ff168152602001600015158152602001600015158152602001600015158152602001600081525090565b6001600160a01b0391909116815260200190565b6001600160a01b0381168114610ded57600080fd5b50565b60008060408385031215610e0357600080fd5b823591506020830135610e1581610dd8565b809150509250929050565b80518252602081015160208301526040810151604083015260ff606082015116606083015260808101511515608083015260a0810151151560a083015260c0810151151560c083015260e081015160e08301525050565b6001600160801b03169052565b6001600160a01b03169052565b600061022082019050610ea5828451610e20565b6020830151610100610eb981850183610e77565b60408501519150610120610ecf81860184610e77565b60608601519250610ee4610140860184610e77565b60808601519250610ef9610160860184610e77565b60a086015164ffffffffff1661018086015260c08601519250610f206101a0860184610e84565b60e08601519250610f356101c0860184610e84565b818601519250610f496101e0860184610e84565b8086015161020086015250505092915050565b600060208284031215610f6e57600080fd5b5035919050565b60005b83811015610f90578181015183820152602001610f78565b83811115610f9f576000848401525b50505050565b60006020808301818452808551808352604092508286019150828160051b87010184880160005b8381101561102a57603f1989840301855281518051878552805180898701526060610ffc828289018d8601610f75565b928a01516001600160a01b0316868b015296890196601f01601f191690940101925090860190600101610fcc565b509098975050505050505050565b61010081016102ce8284610e20565b60008060006060848603121561105c57600080fd5b83359250602084013561106e81610dd8565b9150604084013561107e81610dd8565b809150509250925092565b805161109481610dd8565b919050565b8051801515811461109457600080fd5b600080604083850312156110bc57600080fd5b82516110c781610dd8565b91506110d560208401611099565b90509250929050565b634e487b7160e01b600052604160045260246000fd5b60405161010081016001600160401b0381118282101715611117576111176110de565b60405290565b60405161014081016001600160401b0381118282101715611117576111176110de565b604051601f8201601f191681016001600160401b0381118282101715611168576111686110de565b604052919050565b6000610100828403121561118357600080fd5b61118b6110f4565b9050815181526020820151602082015260408201516040820152606082015160ff811681146111b957600080fd5b60608201526111ca60808301611099565b60808201526111db60a08301611099565b60a08201526111ec60c08301611099565b60c082015260e082015160e082015292915050565b80516001600160801b038116811461109457600080fd5b805164ffffffffff8116811461109457600080fd5b6000610220828403121561124057600080fd5b61124861111d565b6112528484611170565b8152610100611262818501611201565b6020830152610120611275818601611201565b60408401526112876101408601611201565b60608401526112996101608601611201565b60808401526112ab6101808601611218565b60a08401526112bd6101a08601611089565b60c08401526112cf6101c08601611089565b60e08401526112e16101e08601611089565b828401526102008501518184015250508091505092915050565b6000602080838503121561130e57600080fd5b82516001600160401b038082111561132557600080fd5b818501915085601f83011261133957600080fd5b81518181111561134b5761134b6110de565b8060051b915061135c848301611140565b818152918301840191848101908884111561137657600080fd5b938501935b838510156113a0578451925061139083610dd8565b828252938501939085019061137b565b98975050505050505050565b634e487b7160e01b600052603260045260246000fd5b6000602082840312156113d457600080fd5b81516001600160401b03808211156113eb57600080fd5b818401915084601f8301126113ff57600080fd5b815181811115611411576114116110de565b611424601f8201601f1916602001611140565b915080825285602082850101111561143b57600080fd5b61144c816020840160208601610f75565b50949350505050565b60006001820161147557634e487b7160e01b600052601160045260246000fd5b5060010190565b6000610100828403121561148f57600080fd5b6114998383611170565b9392505050565b600080604083850312156114b357600080fd5b6110c783611099565b6000602082840312156114ce57600080fd5b505191905056fea2646970667358221220ee56840fa5123d0bce84d16e055fe0847cd1f5bf994a384d311c4be26e9b55aa64736f6c634300080e0033",
  "linkReferences": {},
  "deployedLinkReferences": {}
}