{
  "_format": "hh-sol-artifact-1",
  "contractName": "MockERC20",
  "sourceName": "contracts/Mock/MockERC20.sol",
  "abi": [
    {
      "inputs": [
        {
          "internalType": "string",
          "name": "name_",
          "type": "string"
        },
        {
          "internalType": "string",
          "name": "symbol_",
          "type": "string"
        },
        {
          "internalType": "uint8",
          "name": "decimals_",
          "type": "uint8"
        }
      ],
      "stateMutability": "nonpayable",
      "type": "constructor"
    },
    {
      "anonymous": false,
      "inputs": [
        {
          "indexed": true,
          "internalType": "address",
          "name": "owner",
          "type": "address"
        },
        {
          "indexed": true,
          "internalType": "address",
          "name": "spender",
          "type": "address"
        },
        {
          "indexed": false,
          "internalType": "uint256",
          "name": "value",
          "type": "uint256"
        }
      ],
      "name": "Approval",
      "type": "event"
    },
    {
      "anonymous": false,
      "inputs": [
        {
          "indexed": true,
          "internalType": "address",
          "name": "from",
          "type": "address"
        },
        {
          "indexed": true,
          "internalType": "address",
          "name": "to",
          "type": "address"
        },
        {
          "indexed": false,
          "internalType": "uint256",
          "name": "value",
          "type": "uint256"
        }
      ],
      "name": "Transfer",
      "type": "event"
    },
    {
      "inputs": [
        {
          "internalType": "address",
          "name": "owner",
          "type": "address"
        },
        {
          "internalType": "address",
          "name": "spender",
          "type": "address"
        }
      ],
      "name": "allowance",
      "outputs": [
        {
          "internalType": "uint256",
          "name": "",
          "type": "uint256"
        }
      ],
      "stateMutability": "view",
      "type": "function"
    },
    {
      "inputs": [
        {
          "internalType": "address",
          "name": "spender",
          "type": "address"
        },
        {
          "internalType": "uint256",
          "name": "amount",
          "type": "uint256"
        }
      ],
      "name": "approve",
      "outputs": [
        {
          "internalType": "bool",
          "name": "",
          "type": "bool"
        }
      ],
      "stateMutability": "nonpayable",
      "type": "function"
    },
    {
      "inputs": [
        {
          "internalType": "address",
          "name": "account",
          "type": "address"
        }
      ],
      "name": "balanceOf",
      "outputs": [
        {
          "internalType": "uint256",
          "name": "",
          "type": "uint256"
        }
      ],
      "stateMutability": "view",
      "type": "function"
    },
    {
      "inputs": [],
      "name": "decimals",
      "outputs": [
        {
          "internalType": "uint8",
          "name": "",
          "type": "uint8"
        }
      ],
      "stateMutability": "view",
      "type": "function"
    },
    {
      "inputs": [
        {
          "internalType": "address",
          "name": "spender",
          "type": "address"
        },
        {
          "internalType": "uint256",
          "name": "subtractedValue",
          "type": "uint256"
        }
      ],
      "name": "decreaseAllowance",
      "outputs": [
        {
          "internalType": "bool",
          "name": "",
          "type": "bool"
        }
      ],
      "stateMutability": "nonpayable",
      "type": "function"
    },
    {
      "inputs": [
        {
          "internalType": "address",
          "name": "spender",
          "type": "address"
        }
      ],
      "name": "faucet",
      "outputs": [],
      "stateMutability": "nonpayable",
      "type": "function"
    },
    {
      "inputs": [
        {
          "internalType": "address",
          "name": "spender",
          "type": "address"
        },
        {
          "internalType": "uint256",
          "name": "addedValue",
          "type": "uint256"
        }
      ],
      "name": "increaseAllowance",
      "outputs": [
        {
          "internalType": "bool",
          "name": "",
          "type": "bool"
        }
      ],
      "stateMutability": "nonpayable",
      "type": "function"
    },
    {
      "inputs": [
        {
          "internalType": "uint256",
          "name": "amount",
          "type": "uint256"
        },
        {
          "internalType": "address",
          "name": "user_address",
          "type": "address"
        }
      ],
      "name": "mint_to_user",
      "outputs": [],
      "stateMutability": "nonpayable",
      "type": "function"
    },
    {
      "inputs": [],
      "name": "name",
      "outputs": [
        {
          "internalType": "string",
          "name": "",
          "type": "string"
        }
      ],
      "stateMutability": "view",
      "type": "function"
    },
    {
      "inputs": [],
      "name": "symbol",
      "outputs": [
        {
          "internalType": "string",
          "name": "",
          "type": "string"
        }
      ],
      "stateMutability": "view",
      "type": "function"
    },
    {
      "inputs": [],
      "name": "totalSupply",
      "outputs": [
        {
          "internalType": "uint256",
          "name": "",
          "type": "uint256"
        }
      ],
      "stateMutability": "view",
      "type": "function"
    },
    {
      "inputs": [
        {
          "internalType": "address",
          "name": "recipient",
          "type": "address"
        },
        {
          "internalType": "uint256",
          "name": "amount",
          "type": "uint256"
        }
      ],
      "name": "transfer",
      "outputs": [
        {
          "internalType": "bool",
          "name": "",
          "type": "bool"
        }
      ],
      "stateMutability": "nonpayable",
      "type": "function"
    },
    {
      "inputs": [
        {
          "internalType": "address",
          "name": "sender",
          "type": "address"
        },
        {
          "internalType": "address",
          "name": "recipient",
          "type": "address"
        },
        {
          "internalType": "uint256",
          "name": "amount",
          "type": "uint256"
        }
      ],
      "name": "transferFrom",
      "outputs": [
        {
          "internalType": "bool",
          "name": "",
          "type": "bool"
        }
      ],
      "stateMutability": "nonpayable",
      "type": "function"
    }
  ],
  "bytecode": "0x60806040523480156200001157600080fd5b5060405162000e3638038062000e368339810160408190526200003491620002eb565b82516200004990600390602086019062000178565b5081516200005f90600490602085019062000178565b506005805460ff191660ff831617905562000086336a084595161401484a0000006200008f565b505050620003d3565b6001600160a01b038216620000ea5760405162461bcd60e51b815260206004820152601f60248201527f45524332303a206d696e7420746f20746865207a65726f206164647265737300604482015260640160405180910390fd5b80600254620000fa919062000370565b6002556001600160a01b0382166000908152602081905260409020546200012390829062000370565b6001600160a01b038316600081815260208181526040808320949094559251848152919290917fddf252ad1be2c89b69c2b068fc378daa952ba7f163c4a11628f55a4df523b3ef910160405180910390a35050565b828054620001869062000397565b90600052602060002090601f016020900481019282620001aa5760008555620001f5565b82601f10620001c557805160ff1916838001178555620001f5565b82800160010185558215620001f5579182015b82811115620001f5578251825591602001919060010190620001d8565b506200020392915062000207565b5090565b5b8082111562000203576000815560010162000208565b634e487b7160e01b600052604160045260246000fd5b600082601f8301126200024657600080fd5b81516001600160401b03808211156200026357620002636200021e565b604051601f8301601f19908116603f011681019082821181831017156200028e576200028e6200021e565b81604052838152602092508683858801011115620002ab57600080fd5b600091505b83821015620002cf5785820183015181830184015290820190620002b0565b83821115620002e15760008385830101525b9695505050505050565b6000806000606084860312156200030157600080fd5b83516001600160401b03808211156200031957600080fd5b620003278783880162000234565b945060208601519150808211156200033e57600080fd5b506200034d8682870162000234565b925050604084015160ff811681146200036557600080fd5b809150509250925092565b600082198211156200039257634e487b7160e01b600052601160045260246000fd5b500190565b600181811c90821680620003ac57607f821691505b602082108103620003cd57634e487b7160e01b600052602260045260246000fd5b50919050565b610a5380620003e36000396000f3fe608060405234801561001057600080fd5b50600436106100af5760003560e01c806306fdde03146100b4578063095ea7b3146100d257806318160ddd146100f557806323b872dd14610107578063313ce5671461011a578063395093511461012f57806370a082311461014257806395d89b411461016b578063966b42fd14610173578063a457c2d714610188578063a9059cbb1461019b578063b86d1d63146101ae578063dd62ed3e146101c1575b600080fd5b6100bc6101fa565b6040516100c9919061073d565b60405180910390f35b6100e56100e03660046107ae565b61028c565b60405190151581526020016100c9565b6002545b6040519081526020016100c9565b6100e56101153660046107d8565b6102a3565b60055460405160ff90911681526020016100c9565b6100e561013d3660046107ae565b6102f5565b6100f9610150366004610814565b6001600160a01b031660009081526020819052604090205490565b6100bc61032c565b610186610181366004610836565b61033b565b005b6100e56101963660046107ae565b610349565b6100e56101a93660046107ae565b610380565b6101866101bc366004610814565b61038d565b6100f96101cf366004610862565b6001600160a01b03918216600090815260016020908152604080832093909416825291909152205490565b6060600380546102099061088c565b80601f01602080910402602001604051908101604052809291908181526020018280546102359061088c565b80156102825780601f1061025757610100808354040283529160200191610282565b820191906000526020600020905b81548152906001019060200180831161026557829003601f168201915b5050505050905090565b60006102993384846103c8565b5060015b92915050565b60006102b08484846104f2565b6001600160a01b0384166000908152600160209081526040808320338085529252909120546102eb9186916102e69086906108dc565b6103c8565b5060019392505050565b3360008181526001602090815260408083206001600160a01b038716845290915281205490916102999185906102e69086906108f3565b6060600480546102099061088c565b610345818361065d565b5050565b3360008181526001602090815260408083206001600160a01b038716845290915281205490916102999185906102e69086906108dc565b60006102993384846104f2565b6005546000906103a19060ff16600a6109ef565b6103ad906103e86109fe565b90506103b9338261065d565b6103c3828261028c565b505050565b6001600160a01b03831661042f5760405162461bcd60e51b8152602060048201526024808201527f45524332303a20617070726f76652066726f6d20746865207a65726f206164646044820152637265737360e01b60648201526084015b60405180910390fd5b6001600160a01b0382166104905760405162461bcd60e51b815260206004820152602260248201527f45524332303a20617070726f766520746f20746865207a65726f206164647265604482015261737360f01b6064820152608401610426565b6001600160a01b0383811660008181526001602090815260408083209487168084529482529182902085905590518481527f8c5be1e5ebec7d5bd14f71427d1e84f3dd0314c0f7b2291e5b200ac8c7c3b92591015b60405180910390a3505050565b6001600160a01b0383166105565760405162461bcd60e51b815260206004820152602560248201527f45524332303a207472616e736665722066726f6d20746865207a65726f206164604482015264647265737360d81b6064820152608401610426565b6001600160a01b0382166105b85760405162461bcd60e51b815260206004820152602360248201527f45524332303a207472616e7366657220746f20746865207a65726f206164647260448201526265737360e81b6064820152608401610426565b6001600160a01b0383166000908152602081905260409020546105dc9082906108dc565b6001600160a01b03808516600090815260208190526040808220939093559084168152205461060c9082906108f3565b6001600160a01b038381166000818152602081815260409182902094909455518481529092918616917fddf252ad1be2c89b69c2b068fc378daa952ba7f163c4a11628f55a4df523b3ef91016104e5565b6001600160a01b0382166106b35760405162461bcd60e51b815260206004820152601f60248201527f45524332303a206d696e7420746f20746865207a65726f2061646472657373006044820152606401610426565b806002546106c191906108f3565b6002556001600160a01b0382166000908152602081905260409020546106e89082906108f3565b6001600160a01b038316600081815260208181526040808320949094559251848152919290917fddf252ad1be2c89b69c2b068fc378daa952ba7f163c4a11628f55a4df523b3ef910160405180910390a35050565b600060208083528351808285015260005b8181101561076a5785810183015185820160400152820161074e565b8181111561077c576000604083870101525b50601f01601f1916929092016040019392505050565b80356001600160a01b03811681146107a957600080fd5b919050565b600080604083850312156107c157600080fd5b6107ca83610792565b946020939093013593505050565b6000806000606084860312156107ed57600080fd5b6107f684610792565b925061080460208501610792565b9150604084013590509250925092565b60006020828403121561082657600080fd5b61082f82610792565b9392505050565b6000806040838503121561084957600080fd5b8235915061085960208401610792565b90509250929050565b6000806040838503121561087557600080fd5b61087e83610792565b915061085960208401610792565b600181811c908216806108a057607f821691505b6020821081036108c057634e487b7160e01b600052602260045260246000fd5b50919050565b634e487b7160e01b600052601160045260246000fd5b6000828210156108ee576108ee6108c6565b500390565b60008219821115610906576109066108c6565b500190565b600181815b8085111561094657816000190482111561092c5761092c6108c6565b8085161561093957918102915b93841c9390800290610910565b509250929050565b60008261095d5750600161029d565b8161096a5750600061029d565b8160018114610980576002811461098a576109a6565b600191505061029d565b60ff84111561099b5761099b6108c6565b50506001821b61029d565b5060208310610133831016604e8410600b84101617156109c9575081810a61029d565b6109d3838361090b565b80600019048211156109e7576109e76108c6565b029392505050565b600061082f60ff84168361094e565b6000816000190483118215151615610a1857610a186108c6565b50029056fea26469706673582212200584b108830e53fdcefd3052b6a32c44d2460ef839d822279f793959fedd000164736f6c634300080e0033",
  "linkReferences": {},
  "deployedLinkReferences": {}
}