{
  "_format": "hh-sol-artifact-1",
  "contractName": "LendingPool",
  "sourceName": "contracts/Pool/LendingPool.sol",
  "abi": [
    {
      "inputs": [
        {
          "internalType": "contract ILendingPoolAddressesProvider",
          "name": "provider",
          "type": "address"
        }
      ],
      "stateMutability": "nonpayable",
      "type": "constructor"
    },
    {
      "anonymous": false,
      "inputs": [
        {
          "indexed": true,
          "internalType": "address",
          "name": "reserve",
          "type": "address"
        },
        {
          "indexed": false,
          "internalType": "address",
          "name": "user",
          "type": "address"
        },
        {
          "indexed": true,
          "internalType": "address",
          "name": "onBehalfOf",
          "type": "address"
        },
        {
          "indexed": false,
          "internalType": "uint256",
          "name": "amount",
          "type": "uint256"
        },
        {
          "indexed": false,
          "internalType": "uint256",
          "name": "borrowRateMode",
          "type": "uint256"
        },
        {
          "indexed": false,
          "internalType": "uint256",
          "name": "borrowRate",
          "type": "uint256"
        }
      ],
      "name": "Borrow",
      "type": "event"
    },
    {
      "anonymous": false,
      "inputs": [
        {
          "indexed": true,
          "internalType": "address",
          "name": "reserve",
          "type": "address"
        },
        {
          "indexed": false,
          "internalType": "address",
          "name": "user",
          "type": "address"
        },
        {
          "indexed": true,
          "internalType": "address",
          "name": "onBehalfOf",
          "type": "address"
        },
        {
          "indexed": false,
          "internalType": "uint256",
          "name": "amount",
          "type": "uint256"
        }
      ],
      "name": "Deposit",
      "type": "event"
    },
    {
      "anonymous": false,
      "inputs": [
        {
          "indexed": true,
          "internalType": "address",
          "name": "collateralAsset",
          "type": "address"
        },
        {
          "indexed": true,
          "internalType": "address",
          "name": "debtAsset",
          "type": "address"
        },
        {
          "indexed": true,
          "internalType": "address",
          "name": "user",
          "type": "address"
        },
        {
          "indexed": false,
          "internalType": "uint256",
          "name": "debtToCover",
          "type": "uint256"
        },
        {
          "indexed": false,
          "internalType": "uint256",
          "name": "liquidatedCollateralAmount",
          "type": "uint256"
        },
        {
          "indexed": false,
          "internalType": "address",
          "name": "liquidator",
          "type": "address"
        },
        {
          "indexed": false,
          "internalType": "bool",
          "name": "receiveAToken",
          "type": "bool"
        }
      ],
      "name": "LiquidationCall",
      "type": "event"
    },
    {
      "anonymous": false,
      "inputs": [],
      "name": "Paused",
      "type": "event"
    },
    {
      "anonymous": false,
      "inputs": [
        {
          "indexed": true,
          "internalType": "address",
          "name": "reserve",
          "type": "address"
        },
        {
          "indexed": true,
          "internalType": "address",
          "name": "user",
          "type": "address"
        },
        {
          "indexed": true,
          "internalType": "address",
          "name": "repayer",
          "type": "address"
        },
        {
          "indexed": false,
          "internalType": "uint256",
          "name": "amount",
          "type": "uint256"
        }
      ],
      "name": "Repay",
      "type": "event"
    },
    {
      "anonymous": false,
      "inputs": [
        {
          "indexed": true,
          "internalType": "address",
          "name": "reserve",
          "type": "address"
        },
        {
          "indexed": false,
          "internalType": "uint256",
          "name": "liquidityRate",
          "type": "uint256"
        },
        {
          "indexed": false,
          "internalType": "uint256",
          "name": "stableBorrowRate",
          "type": "uint256"
        },
        {
          "indexed": false,
          "internalType": "uint256",
          "name": "variableBorrowRate",
          "type": "uint256"
        },
        {
          "indexed": false,
          "internalType": "uint256",
          "name": "liquidityIndex",
          "type": "uint256"
        },
        {
          "indexed": false,
          "internalType": "uint256",
          "name": "variableBorrowIndex",
          "type": "uint256"
        }
      ],
      "name": "ReserveDataUpdated",
      "type": "event"
    },
    {
      "anonymous": false,
      "inputs": [
        {
          "indexed": true,
          "internalType": "address",
          "name": "reserve",
          "type": "address"
        },
        {
          "indexed": true,
          "internalType": "address",
          "name": "user",
          "type": "address"
        }
      ],
      "name": "ReserveUsedAsCollateralDisabled",
      "type": "event"
    },
    {
      "anonymous": false,
      "inputs": [
        {
          "indexed": true,
          "internalType": "address",
          "name": "reserve",
          "type": "address"
        },
        {
          "indexed": true,
          "internalType": "address",
          "name": "user",
          "type": "address"
        }
      ],
      "name": "ReserveUsedAsCollateralEnabled",
      "type": "event"
    },
    {
      "anonymous": false,
      "inputs": [],
      "name": "Unpaused",
      "type": "event"
    },
    {
      "anonymous": false,
      "inputs": [
        {
          "indexed": true,
          "internalType": "address",
          "name": "reserve",
          "type": "address"
        },
        {
          "indexed": true,
          "internalType": "address",
          "name": "user",
          "type": "address"
        },
        {
          "indexed": true,
          "internalType": "address",
          "name": "to",
          "type": "address"
        },
        {
          "indexed": false,
          "internalType": "uint256",
          "name": "amount",
          "type": "uint256"
        }
      ],
      "name": "Withdraw",
      "type": "event"
    },
    {
      "inputs": [],
      "name": "MAX_NUMBER_RESERVES",
      "outputs": [
        {
          "internalType": "uint256",
          "name": "",
          "type": "uint256"
        }
      ],
      "stateMutability": "view",
      "type": "function"
    },
    {
      "inputs": [
        {
          "internalType": "address",
          "name": "asset",
          "type": "address"
        },
        {
          "internalType": "uint256",
          "name": "amount",
          "type": "uint256"
        },
        {
          "internalType": "uint256",
          "name": "interestRateMode",
          "type": "uint256"
        },
        {
          "internalType": "address",
          "name": "onBehalfOf",
          "type": "address"
        }
      ],
      "name": "borrow",
      "outputs": [],
      "stateMutability": "nonpayable",
      "type": "function"
    },
    {
      "inputs": [
        {
          "internalType": "uint256",
          "name": "id",
          "type": "uint256"
        },
        {
          "internalType": "address",
          "name": "paymentAsset",
          "type": "address"
        }
      ],
      "name": "closePosition",
      "outputs": [
        {
          "internalType": "uint256",
          "name": "paymentAmount",
          "type": "uint256"
        },
        {
          "internalType": "uint256",
          "name": "pnl",
          "type": "uint256"
        }
      ],
      "stateMutability": "nonpayable",
      "type": "function"
    },
    {
      "inputs": [
        {
          "internalType": "address",
          "name": "asset",
          "type": "address"
        },
        {
          "internalType": "uint256",
          "name": "amount",
          "type": "uint256"
        },
        {
          "internalType": "address",
          "name": "onBehalfOf",
          "type": "address"
        }
      ],
      "name": "deposit",
      "outputs": [],
      "stateMutability": "nonpayable",
      "type": "function"
    },
    {
      "inputs": [
        {
          "internalType": "address",
          "name": "asset",
          "type": "address"
        },
        {
          "internalType": "address",
          "name": "from",
          "type": "address"
        },
        {
          "internalType": "address",
          "name": "to",
          "type": "address"
        },
        {
          "internalType": "uint256",
          "name": "amount",
          "type": "uint256"
        },
        {
          "internalType": "uint256",
          "name": "balanceFromBefore",
          "type": "uint256"
        },
        {
          "internalType": "uint256",
          "name": "balanceToBefore",
          "type": "uint256"
        }
      ],
      "name": "finalizeTransfer",
      "outputs": [],
      "stateMutability": "nonpayable",
      "type": "function"
    },
    {
      "inputs": [],
      "name": "getAddressesProvider",
      "outputs": [
        {
          "internalType": "contract ILendingPoolAddressesProvider",
          "name": "",
          "type": "address"
        }
      ],
      "stateMutability": "view",
      "type": "function"
    },
    {
      "inputs": [
        {
          "internalType": "address",
          "name": "asset",
          "type": "address"
        }
      ],
      "name": "getConfiguration",
      "outputs": [
        {
          "components": [
            {
              "internalType": "uint256",
              "name": "ltv",
              "type": "uint256"
            },
            {
              "internalType": "uint256",
              "name": "liquidationThreshold",
              "type": "uint256"
            },
            {
              "internalType": "uint256",
              "name": "liquidationBonus",
              "type": "uint256"
            },
            {
              "internalType": "uint8",
              "name": "decimals",
              "type": "uint8"
            },
            {
              "internalType": "bool",
              "name": "active",
              "type": "bool"
            },
            {
              "internalType": "bool",
              "name": "frozen",
              "type": "bool"
            },
            {
              "internalType": "bool",
              "name": "borrowingEnabled",
              "type": "bool"
            },
            {
              "internalType": "uint256",
              "name": "reserveFactor",
              "type": "uint256"
            }
          ],
          "internalType": "struct DataTypes.ReserveConfiguration",
          "name": "",
          "type": "tuple"
        }
      ],
      "stateMutability": "view",
      "type": "function"
    },
    {
      "inputs": [
        {
          "internalType": "address",
          "name": "asset",
          "type": "address"
        }
      ],
      "name": "getReserveData",
      "outputs": [
        {
          "components": [
            {
              "components": [
                {
                  "internalType": "uint256",
                  "name": "ltv",
                  "type": "uint256"
                },
                {
                  "internalType": "uint256",
                  "name": "liquidationThreshold",
                  "type": "uint256"
                },
                {
                  "internalType": "uint256",
                  "name": "liquidationBonus",
                  "type": "uint256"
                },
                {
                  "internalType": "uint8",
                  "name": "decimals",
                  "type": "uint8"
                },
                {
                  "internalType": "bool",
                  "name": "active",
                  "type": "bool"
                },
                {
                  "internalType": "bool",
                  "name": "frozen",
                  "type": "bool"
                },
                {
                  "internalType": "bool",
                  "name": "borrowingEnabled",
                  "type": "bool"
                },
                {
                  "internalType": "uint256",
                  "name": "reserveFactor",
                  "type": "uint256"
                }
              ],
              "internalType": "struct DataTypes.ReserveConfiguration",
              "name": "configuration",
              "type": "tuple"
            },
            {
              "internalType": "uint128",
              "name": "liquidityIndex",
              "type": "uint128"
            },
            {
              "internalType": "uint128",
              "name": "borrowIndex",
              "type": "uint128"
            },
            {
              "internalType": "uint128",
              "name": "currentLiquidityRate",
              "type": "uint128"
            },
            {
              "internalType": "uint128",
              "name": "currentBorrowRate",
              "type": "uint128"
            },
            {
              "internalType": "uint40",
              "name": "lastUpdateTimestamp",
              "type": "uint40"
            },
            {
              "internalType": "address",
              "name": "kTokenAddress",
              "type": "address"
            },
            {
              "internalType": "address",
              "name": "dTokenAddress",
              "type": "address"
            },
            {
              "internalType": "address",
              "name": "interestRateStrategyAddress",
              "type": "address"
            },
            {
              "internalType": "uint256",
              "name": "id",
              "type": "uint256"
            }
          ],
          "internalType": "struct DataTypes.ReserveData",
          "name": "",
          "type": "tuple"
        }
      ],
      "stateMutability": "view",
      "type": "function"
    },
    {
      "inputs": [
        {
          "internalType": "address",
          "name": "asset",
          "type": "address"
        }
      ],
      "name": "getReserveNormalizedDebt",
      "outputs": [
        {
          "internalType": "uint256",
          "name": "",
          "type": "uint256"
        }
      ],
      "stateMutability": "view",
      "type": "function"
    },
    {
      "inputs": [
        {
          "internalType": "address",
          "name": "asset",
          "type": "address"
        }
      ],
      "name": "getReserveNormalizedIncome",
      "outputs": [
        {
          "internalType": "uint256",
          "name": "",
          "type": "uint256"
        }
      ],
      "stateMutability": "view",
      "type": "function"
    },
    {
      "inputs": [],
      "name": "getReservesList",
      "outputs": [
        {
          "internalType": "address[]",
          "name": "",
          "type": "address[]"
        }
      ],
      "stateMutability": "view",
      "type": "function"
    },
    {
      "inputs": [
        {
          "internalType": "address",
          "name": "user",
          "type": "address"
        }
      ],
      "name": "getUserAccountData",
      "outputs": [
        {
          "internalType": "uint256",
          "name": "totalCollateralETH",
          "type": "uint256"
        },
        {
          "internalType": "uint256",
          "name": "totalDebtETH",
          "type": "uint256"
        },
        {
          "internalType": "uint256",
          "name": "availableBorrowsETH",
          "type": "uint256"
        },
        {
          "internalType": "uint256",
          "name": "currentLiquidationThreshold",
          "type": "uint256"
        },
        {
          "internalType": "uint256",
          "name": "ltv",
          "type": "uint256"
        },
        {
          "internalType": "uint256",
          "name": "healthFactor",
          "type": "uint256"
        }
      ],
      "stateMutability": "view",
      "type": "function"
    },
    {
      "inputs": [
        {
          "internalType": "address",
          "name": "user",
          "type": "address"
        },
        {
          "internalType": "uint256",
          "name": "id",
          "type": "uint256"
        }
      ],
      "name": "getUserConfiguration",
      "outputs": [
        {
          "internalType": "bool",
          "name": "",
          "type": "bool"
        },
        {
          "internalType": "bool",
          "name": "",
          "type": "bool"
        }
      ],
      "stateMutability": "view",
      "type": "function"
    },
    {
      "inputs": [],
      "name": "getUsersList",
      "outputs": [
        {
          "internalType": "address[]",
          "name": "",
          "type": "address[]"
        }
      ],
      "stateMutability": "view",
      "type": "function"
    },
    {
      "inputs": [
        {
          "internalType": "address",
          "name": "asset",
          "type": "address"
        },
        {
          "internalType": "address",
          "name": "kTokenAddress",
          "type": "address"
        },
        {
          "internalType": "address",
          "name": "dTokenAddress",
          "type": "address"
        },
        {
          "internalType": "address",
          "name": "interestRateStrategyAddress",
          "type": "address"
        }
      ],
      "name": "initReserve",
      "outputs": [],
      "stateMutability": "nonpayable",
      "type": "function"
    },
    {
      "inputs": [
        {
          "internalType": "address",
          "name": "collateralAsset",
          "type": "address"
        },
        {
          "internalType": "address",
          "name": "debtAsset",
          "type": "address"
        },
        {
          "internalType": "address",
          "name": "user",
          "type": "address"
        },
        {
          "internalType": "uint256",
          "name": "debtToCover",
          "type": "uint256"
        },
        {
          "internalType": "bool",
          "name": "receiveAToken",
          "type": "bool"
        }
      ],
      "name": "liquidationCall",
      "outputs": [],
      "stateMutability": "nonpayable",
      "type": "function"
    },
    {
      "inputs": [
        {
          "internalType": "address",
          "name": "marginAsset",
          "type": "address"
        },
        {
          "internalType": "address",
          "name": "borrowedAsset",
          "type": "address"
        },
        {
          "internalType": "address",
          "name": "heldAsset",
          "type": "address"
        },
        {
          "internalType": "uint256",
          "name": "marginAmount",
          "type": "uint256"
        },
        {
          "internalType": "uint256",
          "name": "leverage",
          "type": "uint256"
        }
      ],
      "name": "openPosition",
      "outputs": [
        {
          "components": [
            {
              "internalType": "address",
              "name": "traderAddress",
              "type": "address"
            },
            {
              "internalType": "address",
              "name": "marginAsset",
              "type": "address"
            },
            {
              "internalType": "address",
              "name": "borrowedAsset",
              "type": "address"
            },
            {
              "internalType": "uint256",
              "name": "marginAmount",
              "type": "uint256"
            },
            {
              "internalType": "uint256",
              "name": "borrowedAmount",
              "type": "uint256"
            },
            {
              "internalType": "uint256",
              "name": "liquidationThreshold",
              "type": "uint256"
            },
            {
              "internalType": "uint256",
              "name": "id",
              "type": "uint256"
            }
          ],
          "internalType": "struct DataTypes.UserPosition",
          "name": "",
          "type": "tuple"
        }
      ],
      "stateMutability": "nonpayable",
      "type": "function"
    },
    {
      "inputs": [],
      "name": "paused",
      "outputs": [
        {
          "internalType": "bool",
          "name": "",
          "type": "bool"
        }
      ],
      "stateMutability": "view",
      "type": "function"
    },
    {
      "inputs": [
        {
          "internalType": "address",
          "name": "asset",
          "type": "address"
        },
        {
          "internalType": "uint256",
          "name": "amount",
          "type": "uint256"
        },
        {
          "internalType": "uint256",
          "name": "rateMode",
          "type": "uint256"
        },
        {
          "internalType": "address",
          "name": "onBehalfOf",
          "type": "address"
        }
      ],
      "name": "repay",
      "outputs": [
        {
          "internalType": "uint256",
          "name": "",
          "type": "uint256"
        }
      ],
      "stateMutability": "nonpayable",
      "type": "function"
    },
    {
      "inputs": [
        {
          "internalType": "address",
          "name": "asset",
          "type": "address"
        },
        {
          "components": [
            {
              "internalType": "uint256",
              "name": "ltv",
              "type": "uint256"
            },
            {
              "internalType": "uint256",
              "name": "liquidationThreshold",
              "type": "uint256"
            },
            {
              "internalType": "uint256",
              "name": "liquidationBonus",
              "type": "uint256"
            },
            {
              "internalType": "uint8",
              "name": "decimals",
              "type": "uint8"
            },
            {
              "internalType": "bool",
              "name": "active",
              "type": "bool"
            },
            {
              "internalType": "bool",
              "name": "frozen",
              "type": "bool"
            },
            {
              "internalType": "bool",
              "name": "borrowingEnabled",
              "type": "bool"
            },
            {
              "internalType": "uint256",
              "name": "reserveFactor",
              "type": "uint256"
            }
          ],
          "internalType": "struct DataTypes.ReserveConfiguration",
          "name": "configuration",
          "type": "tuple"
        }
      ],
      "name": "setConfiguration",
      "outputs": [],
      "stateMutability": "nonpayable",
      "type": "function"
    },
    {
      "inputs": [
        {
          "internalType": "bool",
          "name": "val",
          "type": "bool"
        }
      ],
      "name": "setPause",
      "outputs": [],
      "stateMutability": "nonpayable",
      "type": "function"
    },
    {
      "inputs": [
        {
          "internalType": "address",
          "name": "asset",
          "type": "address"
        },
        {
          "internalType": "address",
          "name": "rateStrategyAddress",
          "type": "address"
        }
      ],
      "name": "setReserveInterestRateStrategyAddress",
      "outputs": [],
      "stateMutability": "nonpayable",
      "type": "function"
    },
    {
      "inputs": [
        {
          "internalType": "address",
          "name": "asset",
          "type": "address"
        },
        {
          "internalType": "bool",
          "name": "useAsCollateral",
          "type": "bool"
        }
      ],
      "name": "setUserUseReserveAsCollateral",
      "outputs": [],
      "stateMutability": "nonpayable",
      "type": "function"
    },
    {
      "inputs": [
        {
          "internalType": "address",
          "name": "asset",
          "type": "address"
        },
        {
          "internalType": "uint256",
          "name": "amount",
          "type": "uint256"
        },
        {
          "internalType": "address",
          "name": "to",
          "type": "address"
        }
      ],
      "name": "withdraw",
      "outputs": [
        {
          "internalType": "uint256",
          "name": "",
          "type": "uint256"
        }
      ],
      "stateMutability": "nonpayable",
      "type": "function"
    }
  ],
  "bytecode": "0x60806040523480156200001157600080fd5b50604051620041e4380380620041e4833981016040819052620000349162000060565b600080546001600160a01b0319166001600160a01b0392909216919091179055600019600b5562000092565b6000602082840312156200007357600080fd5b81516001600160a01b03811681146200008b57600080fd5b9392505050565b61414280620000a26000396000f3fe608060405234801561001057600080fd5b50600436106101275760003560e01c8062a718a91461012c5780631d2118f91461014157806322e953ac1461015457806335ea6a7514610167578063573ade81146101905780635a3b74b9146101b15780635c975abb146101c457806369328dec146101da5780638bd25677146101ed5780639a62d6b714610200578063a5b7ba3214610262578063b5e0ecac14610275578063bedb86fb1461029d578063bf92857c146102b0578063c44b11f7146102f0578063c74e13f314610310578063c84555bd14610325578063d15e005314610338578063d1946dbc1461034b578063d2ceba1f14610353578063d5ed3933146103c4578063f45346dc146103d7578063f8119d51146103ea578063fe65acfe146103f2575b600080fd5b61013f61013a3660046136a3565b61040b565b005b61013f61014f36600461370b565b6105dc565b61013f610162366004613744565b610615565b61017a61017536600461378e565b610691565b604051610187919061381c565b60405180910390f35b6101a361019e366004613744565b6107b7565b604051908152602001610187565b61013f6101bf3660046138e7565b610ab7565b600a5460ff166040519015158152602001610187565b6101a36101e8366004613915565b610c80565b61013f6101fb366004613957565b610fab565b61024b61020e3660046139a8565b6001600160a01b0391909116600090815260026020908152604080832093835283825280832054600190940190915290205460ff91821692911690565b604080519215158352901515602083015201610187565b6101a361027036600461378e565b61108a565b6102886102833660046139d4565b6110b1565b60408051928352602083019190915201610187565b61013f6102ab3660046139f9565b61114b565b6102c36102be36600461378e565b6111c5565b604080519687526020870195909552938501929092526060840152608083015260a082015260c001610187565b6103036102fe36600461378e565b61129b565b6040516101879190613a16565b61031861132d565b6040516101879190613a25565b61013f610333366004613a72565b6113e3565b6101a361034636600461378e565b61140f565b610318611430565b610366610361366004613ab5565b6114e0565b6040805182516001600160a01b039081168252602080850151821690830152838301511691810191909152606080830151908201526080808301519082015260a0808301519082015260c0918201519181019190915260e001610187565b61013f6103d2366004613b10565b611608565b61013f6103e5366004613915565b6117f0565b600b546101a3565b6000546001600160a01b03166040516101879190613b75565b610413611a08565b6000805460405163e0e8d3db60e01b81526001600160a01b039091169063e0e8d3db90610444903090600401613b75565b602060405180830381865afa158015610461573d6000803e3d6000fd5b505050506040513d601f19601f820116820180604052508101906104859190613b89565b6040516001600160a01b038881166024830152878116604483015286811660648301526084820186905284151560a483015291925060009182919084169060c40160408051601f198184030181529181526020820180516001600160e01b031662a718a960e01b179052516104fa9190613bd2565b600060405180830381855af49150503d8060008114610535576040519150601f19603f3d011682016040523d82523d6000602084013e61053a565b606091505b50915091508161054a6011611a37565b906105715760405162461bcd60e51b81526004016105689190613bee565b60405180910390fd5b50600080828060200190518101906105899190613c37565b9150915081600014816040516020016105a29190613bd2565b604051602081830303815290604052906105cf5760405162461bcd60e51b81526004016105689190613bee565b5050505050505050505050565b6105e4611a53565b6001600160a01b03918216600090815260016020526040902060090180546001600160a01b03191691909216179055565b61061d611a08565b6001600160a01b03808516600081815260016020818152604092839020835160e08101855294855233918501919091528585169284019290925260608301879052608083018690526007820154600160281b900490931660a083015260c082019290925261068a90611ad8565b5050505050565b6106996135d7565b506001600160a01b0390811660009081526001602081815260409283902083516102408101855281546101408201908152938201546101608201526002820154610180820152600382015460ff8082166101a0840152610100808304821615156101c0850152620100008304821615156101e08501526301000000909204161515610200830152600483015461022083015293815260058201546001600160801b0380821694830194909452600160801b9081900484169582019590955260068201548084166060830152949094049091166080840152600781015464ffffffffff811660a0850152600160281b9004841660c08401526008810154841660e0840152600981015490931690820152600a9091015461012082015290565b60006107c1611a08565b6001600160a01b03808616600090815260016020526040808220600881015491516370a0823160e01b8152909391909116906370a0823190610807908790600401613b75565b602060405180830381865afa158015610824573d6000803e3d6000fd5b505050506040513d601f19601f820116820180604052508101906108489190613cef565b9050600085600181111561085e5761085e613d08565b604051636fff2fdf60e11b815290915073__$21c34b8e29a99d314827d472f0e1c85fe6$__9063dffe5fbe906108a09086908b9086908b908990600401613d1e565b60006040518083038186803b1580156108b857600080fd5b505af41580156108cc573d6000803e3d6000fd5b508492505050808810156108dd5750865b6108e684611ee1565b60088401546005850154604051637a94c56560e11b81526001600160a01b039092169163f5298aca91610931918a918691600160801b9091046001600160801b031690600401613d6f565b600060405180830381600087803b15801561094b57600080fd5b505af115801561095f573d6000803e3d6000fd5b505050506007840154600160281b90046001600160a01b0316610986858b83856000611f9b565b61099084836121f5565b6000036109ca576001600160a01b0387166000908152600260209081526040808320600a89015484526001019091529020805460ff191690555b6109df6001600160a01b038b16333085612201565b6109f36001600160a01b038b16828461226c565b6040516388dd91a160e01b81526001600160a01b038216906388dd91a190610a219033908690600401613d99565b600060405180830381600087803b158015610a3b57600080fd5b505af1158015610a4f573d6000803e3d6000fd5b50505050336001600160a01b0316876001600160a01b03168b6001600160a01b03167f4cdde6e09bb755c9a5589ebaec640bbfedff1362d4b255ebf8339782b9942faa85604051610aa291815260200190565b60405180910390a45098975050505050505050565b610abf611a08565b6001600160a01b0380831660009081526001602081815260408084203385526002835281852060065495548351631f94a27560e31b81529351929773__$21c34b8e29a99d314827d472f0e1c85fe6$__97635fa297e5978a978d978d97929695600595169263fca513a8926004808401939192918290030181865afa158015610b4c573d6000803e3d6000fd5b505050506040513d601f19601f82011682018060405250810190610b709190613b89565b6040516001600160e01b031960e08b901b16815260048101989098526001600160a01b03968716602489015294151560448801526064870193909352608486019190915260a485015260c48401521660e48201526101040160006040518083038186803b158015610be057600080fd5b505af4158015610bf4573d6000803e3d6000fd5b5050336000908152600260209081526040808320600a87015484529091529020805460ff191685158015919091179091559150610c5690505760405133906001600160a01b038516906000805160206140ed83398151915290600090a3505050565b60405133906001600160a01b038516906000805160206140cd83398151915290600090a35b505050565b6000610c8a611a08565b6001600160a01b03808516600090815260016020526040808220600781015491516370a0823160e01b81529093600160281b909204909116919082906370a0823190610cda903390600401613b75565b602060405180830381865afa158015610cf7573d6000803e3d6000fd5b505050506040513d601f19601f82011682018060405250810190610d1b9190613cef565b90508560018101610d295750805b73__$21c34b8e29a99d314827d472f0e1c85fe6$__63d09db04a898385600160026000336001600160a01b03166001600160a01b03168152602001908152602001600020600560065460008054906101000a90046001600160a01b03166001600160a01b031663fca513a86040518163ffffffff1660e01b8152600401602060405180830381865afa158015610dc3573d6000803e3d6000fd5b505050506040513d601f19601f82011682018060405250810190610de79190613b89565b60405160e08a901b6001600160e01b03191681526001600160a01b039889166004820152602481019790975260448701959095526064860193909352608485019190915260a484015260c483015290911660e48201526101040160006040518083038186803b158015610e5957600080fd5b505af4158015610e6d573d6000803e3d6000fd5b50505050610e7a84611ee1565b610e88848985600085611f9b565b818103610ed457336000818152600260209081526040808320600a8901548452909152808220805460ff19169055516001600160a01b038b16916000805160206140cd83398151915291a35b6005840154604051636b81068560e11b81526001600160a01b0385169163d7020d0a91610f159133918b9187916001600160801b0390911690600401613db2565b600060405180830381600087803b158015610f2f57600080fd5b505af1158015610f43573d6000803e3d6000fd5b50505050856001600160a01b0316336001600160a01b0316896001600160a01b03167f3115d1449a7b732c986cba18244e897a450f61e1bb8d589cd2e69e6c8924f9f784604051610f9691815260200190565b60405180910390a493505050505b9392505050565b610fb3611a53565b610fbc8461228b565b610fc6600b611a37565b90610fe45760405162461bcd60e51b81526004016105689190613bee565b506001600160a01b03848116600090815260016020526040908190209051636047157f60e01b8152600481019190915284821660248201528382166044820152908216606482015273__$88ad6b597226e6a1892b63b4d2c629f9bc$__90636047157f9060840160006040518083038186803b15801561106357600080fd5b505af4158015611077573d6000803e3d6000fd5b505050506110848461229a565b50505050565b6001600160a01b03811660009081526001602052604081206110ab90612381565b92915050565b6000806110bc611a08565b600084815260036020526040908190209051635a36212b60e01b8152336004820152602481018290526001600160a01b038516604482015273__$21c34b8e29a99d314827d472f0e1c85fe6$__90635a36212b9060640160006040518083038186803b15801561112b57600080fd5b505af415801561113f573d6000803e3d6000fd5b50505050509250929050565b611153611a53565b600a805460ff191682151590811790915560ff1615611198576040517f9e87fac88ff661f02d44f95383c817fece4bce600a3dab7a54406878b965e75290600090a150565b6040517fa45f47fdea8a1efdd9029a5691c7f759c32b7c698632b563573e155625d1693390600090a15b50565b600080600080600080611278876001600260008b6001600160a01b03166001600160a01b03168152602001908152602001600020600560065460008054906101000a90046001600160a01b03166001600160a01b031663fca513a86040518163ffffffff1660e01b8152600401602060405180830381865afa15801561124f573d6000803e3d6000fd5b505050506040513d601f19601f820116820180604052508101906112739190613b89565b6123ed565b93995091975090945092509050611290868684612b7c565b935091939550919395565b6112a3613632565b506001600160a01b031660009081526001602081815260409283902083516101008082018652825482529382015492810192909252600281015493820193909352600383015460ff80821660608401529281048316151560808301526201000081048316151560a083015263010000009004909116151560c082015260049091015460e082015290565b606060006009546001600160401b0381111561134b5761134b613c21565b604051908082528060200260200182016040528015611374578160200160208202803683370190505b50905060005b6009548110156113dd5760008181526007602052604090205482516001600160a01b03909116908390839081106113b3576113b3613de3565b6001600160a01b0390921660209283029190910190910152806113d581613e0f565b91505061137a565b50919050565b6113eb611a53565b6001600160a01b038216600090815260016020526040902081906110848282613e35565b6001600160a01b03811660009081526001602052604081206110ab90612bb0565b606060006006546001600160401b0381111561144e5761144e613c21565b604051908082528060200260200182016040528015611477578160200160208202803683370190505b50905060005b6006548110156113dd5760008181526005602052604090205482516001600160a01b03909116908390839081106114b6576114b6613de3565b6001600160a01b0390921660209283029190910190910152806114d881613e0f565b91505061147d565b61153b6040518060e0016040528060006001600160a01b0316815260200160006001600160a01b0316815260200160006001600160a01b03168152602001600081526020016000815260200160008152602001600081525090565b611543611a08565b6001600160a01b03868116600090815260016020526040808220888416835291819020905163c32b1b8760e01b8152600481018390526024810182905292871660448401526064830186905260848301859052909173__$21c34b8e29a99d314827d472f0e1c85fe6$__9063c32b1b879060a40160006040518083038186803b1580156115cf57600080fd5b505af41580156115e3573d6000803e3d6000fd5b506115fd925050506001600160a01b038916333088612201565b505095945050505050565b611610611a08565b6001600160a01b03868116600090815260016020526040902060070154600160281b90041633146116416012611a37565b9061165f5760405162461bcd60e51b81526004016105689190613bee565b5061170a85600160026000896001600160a01b03166001600160a01b03168152602001908152602001600020600560065460008054906101000a90046001600160a01b03166001600160a01b031663fca513a86040518163ffffffff1660e01b8152600401602060405180830381865afa1580156116e1573d6000803e3d6000fd5b505050506040513d601f19601f820116820180604052508101906117059190613b89565b612c04565b6001600160a01b038087166000908152600160205260409020600a015490868116908616146117e75761173d83856121f5565b60000361178b576001600160a01b03808716600081815260026020908152604080832086845291829052808320805460ff191690555190938b16916000805160206140cd83398151915291a3505b8115801561179857508315155b156117e7576001600160a01b03808616600081815260026020908152604080832086845291829052808320805460ff191660011790555190938b16916000805160206140ed83398151915291a3505b50505050505050565b6117f8611a08565b6001600160a01b038316600090815260016020526040908190209051630eca322b60e01b8152600481018290526024810184905273__$21c34b8e29a99d314827d472f0e1c85fe6$__90630eca322b9060440160006040518083038186803b15801561186357600080fd5b505af4158015611877573d6000803e3d6000fd5b505050506007810154600160281b90046001600160a01b031661189982611ee1565b6118a7828683876000611f9b565b6118bc6001600160a01b038616333087612201565b6118d06001600160a01b038616828661226c565b6005820154604051630ab714fb60e11b81526000916001600160a01b0384169163156e29f6916119129188918a916001600160801b0390911690600401613d6f565b6020604051808303816000875af1158015611931573d6000803e3d6000fd5b505050506040513d601f19601f820116820180604052508101906119559190613f00565b905080156119aa576001600160a01b038085166000818152600260209081526040808320600a8901548452909152808220805460ff191660011790555191928916916000805160206140ed8339815191529190a35b6119b384612c58565b836001600160a01b0316866001600160a01b03167f7cfff908a4b583f36430b25d75964c458d8ede8a99bd61be750e97ee1b2f3a9633886040516119f8929190613d99565b60405180910390a3505050505050565b600a5460ff1615611a19600c611a37565b906111c25760405162461bcd60e51b81526004016105689190613bee565b60606110ab826031811115611a4e57611a4e613d08565b612cd9565b60005460405163747e301f60e01b815233916001600160a01b03169063747e301f90611a83903090600401613b75565b602060405180830381865afa158015611aa0573d6000803e3d6000fd5b505050506040513d601f19601f82011682018060405250810190611ac49190613b89565b6001600160a01b031614611a196010611a37565b80516001600160a01b03908116600090815260016020908152604080832081860151851684526002835281842084548351631f94a27560e31b81529351929691959491169263fca513a892600480830193928290030181865afa158015611b43573d6000803e3d6000fd5b505050506040513d601f19601f82011682018060405250810190611b679190613b89565b6003840154909150600090611c0790611b849060ff16600a614001565b6060870151875160405163b3596f0760e01b8152611c0192916001600160a01b0388169163b3596f0791611bba91600401613b75565b602060405180830381865afa158015611bd7573d6000803e3d6000fd5b505050506040513d601f19601f82011682018060405250810190611bfb9190613cef565b90612dd9565b90612de5565b8551604080880151606089015160808a0151600654935163023b6c0960e41b81526001600160a01b039586166004820152602481018b9052928516604484015260648301919091526084820185905260a4820152600160c482015260e48101879052600561010482015261012481019190915290841661014482015290915073__$21c34b8e29a99d314827d472f0e1c85fe6$__906323b6c090906101640160006040518083038186803b158015611cbe57600080fd5b505af4158015611cd2573d6000803e3d6000fd5b50505050611cdf84611ee1565b6008840154602086015160408088015160608901516005890154925163b3f1c93d60e01b81526000956001600160a01b03169463b3f1c93d94611d3a9491939192600160801b9091046001600160801b031690600401613db2565b6020604051808303816000875af1158015611d59573d6000803e3d6000fd5b505050506040513d601f19601f82011682018060405250810190611d7d9190613f00565b90508015611da857600a850154600090815260018581016020526040909120805460ff191690911790555b611dd786600001518760a0015160008960c00151611dc7576000611dcd565b89606001515b8993929190611f9b565b8560c0015115611e60578560a001516001600160a01b0316634efecaa5876020015188606001516040518363ffffffff1660e01b8152600401611e1b929190613d99565b6020604051808303816000875af1158015611e3a573d6000803e3d6000fd5b505050506040513d601f19601f82011682018060405250810190611e5e9190613cef565b505b60408681015187516020808a01516060808c01516080808e015160068e015489516001600160a01b0396871681529687019390935297850197909752600160801b90046001600160801b0316908301529283169392909116917f4bc4b08d677fc59195d56e346dcb5cc5dc3b78b90d59f5d36740ae1b3d225db891016119f8565b60088101546040805163b1bf962d60e01b815290516000926001600160a01b03169163b1bf962d9160048083019260209291908290030181865afa158015611f2d573d6000803e3d6000fd5b505050506040513d601f19601f82011682018060405250810190611f519190613cef565b600583015460078401549192506001600160801b03600160801b820481169291169064ffffffffff16600080611f8a8787868887612df1565b915091506117e78787878585612f27565b611fc66040518060800160405280600081526020016000815260200160008152602001600081525090565b600586015460088701546040805163b1bf962d60e01b8152905161205393600160801b90046001600160801b0316926001600160a01b03169163b1bf962d9160048083019260209291908290030181865afa158015612029573d6000803e3d6000fd5b505050506040513d601f19601f8201168201806040525081019061204d9190613cef565b9061303b565b6060820181905260098701546004808901546040516340e464b960e11b81526001600160a01b038a81169382019390935288831660248201526044810188905260648101879052608481019490945260a484015216906381c8c9729060c4016040805180830381865afa1580156120ce573d6000803e3d6000fd5b505050506040513d601f19601f820116820180604052508101906120f29190614010565b6040830152602082018190526001600160801b0310156121126016611a37565b906121305760405162461bcd60e51b81526004016105689190613bee565b5060408101516001600160801b03101561214a6017611a37565b906121685760405162461bcd60e51b81526004016105689190613bee565b506020818101516040808401516001600160801b03808416600160801b82841681029190911760068d015560058c0154845195865295850192909252848116848401529304909216606082015290516001600160a01b038716917f4063a2df84b66bb796eb32622851d833e57b2c4292900c18f963af8808b13e35919081900360800190a2505050505050565b6000610fa48284614034565b6040516001600160a01b03808516602483015283166044820152606481018290526110849085906323b872dd60e01b906084015b60408051601f198184030181529190526020810180516001600160e01b03166001600160e01b0319909316929092179091526130e3565b610c7b8363a9059cbb60e01b8484604051602401612235929190613d99565b6001600160a01b03163b151590565b600654600b5481106122ac600f611a37565b906122ca5760405162461bcd60e51b81526004016105689190613bee565b506001600160a01b0382166000908152600160205260408120600a015415158061232957506000805260056020527f05b8ccbb9d4d8fb16ea74ce3c29a41f1b461fbdaff4714a0d9a8eb05499746bc546001600160a01b038481169116145b905080610c7b576001600160a01b0383166000818152600160208181526040808420600a01879055868452600590915290912080546001600160a01b03191690921790915561237990839061404b565b600655505050565b600781015460009064ffffffffff90811690421681036123b457505060050154600160801b90046001600160801b031690565b600583015460068401546000916123e5916001600160801b03600160801b9283900481169261204d920416856131b5565b949350505050565b6000808080806001815b8881101561245657600081815260208c9052604090205460ff16151560011480612436575060008181526001808d0160205260409091205460ff161515145b156124445760009150612456565b8061244e81613e0f565b9150506123f7565b508015612476576000806000806000199550955095509550955050612b6e565b50612514604051806102400160405280600081526020016000815260200160008152602001600081526020016000815260200160008152602001600081526020016000815260200160008152602001600081526020016000815260200160008152602001600081526020016000815260200160001515815260200160006001600160a01b031681526020016000151581526020016000151581525090565b600060e08201525b878160e001511015612acd5760e0810151600090815260208b9052604090205460ff168061255f575060e0810151600090815260018b01602052604090205460ff165b15612ab5578860008260e00151815260200190815260200160002060009054906101000a90046001600160a01b0316816101e001906001600160a01b031690816001600160a01b03168152505060008b6000836101e001516001600160a01b03166001600160a01b031681526020019081526020016000206040518061014001604052908160008201604051806101000160405290816000820154815260200160018201548152602001600282015481526020016003820160009054906101000a900460ff1660ff1660ff1681526020016003820160019054906101000a900460ff161515151581526020016003820160029054906101000a900460ff161515151581526020016003820160039054906101000a900460ff1615151515815260200160048201548152505081526020016005820160009054906101000a90046001600160801b03166001600160801b03166001600160801b031681526020016005820160109054906101000a90046001600160801b03166001600160801b03166001600160801b031681526020016006820160009054906101000a90046001600160801b03166001600160801b03166001600160801b031681526020016006820160109054906101000a90046001600160801b03166001600160801b03166001600160801b031681526020016007820160009054906101000a900464ffffffffff1664ffffffffff1664ffffffffff1681526020016007820160059054906101000a90046001600160a01b03166001600160a01b03166001600160a01b031681526020016008820160009054906101000a90046001600160a01b03166001600160a01b03166001600160a01b031681526020016009820160009054906101000a90046001600160a01b03166001600160a01b03166001600160a01b03168152602001600a8201548152505090508060000151600001518260a00181815250508060000151602001518260c001818152505080600001516060015160ff168260800181815250508160800151600a6128569190614063565b60208301526101e082015160405163b3596f0760e01b81526001600160a01b038a169163b3596f079161288c9190600401613b75565b602060405180830381865afa1580156128a9573d6000803e3d6000fd5b505050506040513d601f19601f820116820180604052508101906128cd9190613cef565b825260c0820151158015906128f5575060e0820151600090815260208c9052604090205460ff165b156129f1578060c001516001600160a01b03166370a082318e6040518263ffffffff1660e01b815260040161292a9190613b75565b602060405180830381865afa158015612947573d6000803e3d6000fd5b505050506040513d601f19601f8201168201806040525081019061296b9190613cef565b604083018190526020830151835160009261298a9291611c0191612dd9565b61012084015190915061299d90826131c2565b61012084015260a08301516129c3906129b7908390612dd9565b610160850151906131c2565b61016084015260c08301516129e9906129dd908390612dd9565b610180850151906131c2565b610180840152505b60e0820151600090815260018c01602052604090205460ff1615612ab3578060e001516001600160a01b03166370a082318e6040518263ffffffff1660e01b8152600401612a3f9190613b75565b602060405180830381865afa158015612a5c573d6000803e3d6000fd5b505050506040513d601f19601f82011682018060405250810190612a809190613cef565b6060830181905260208301518351612aac92612aa09291611c0191612dd9565b610140840151906131c2565b6101408301525b505b60e08101805190612ac582613e0f565b90525061251c565b600081610120015111612ae1576000612af6565b610120810151610160820151612af691612de5565b610160820152610120810151612b0d576000612b22565b610120810151610180820151612b2291612de5565b6101808201819052610120820151610140830151612b3f926131ce565b610100820181905261012082015161014083015161016084015161018090940151919850965091945090925090505b965096509650965096915050565b600080612b8985846131f5565b905083811015612b9d576000915050610fa4565b612ba781856121f5565b95945050505050565b600781015460009064ffffffffff9081169042168103612bdc575050600501546001600160801b031690565b600583015460068401546000916123e5916001600160801b039182169161204d91168561326d565b6000612c148787878787876123ed565b945050505050670de0b6b3a7640000811015612c30601c611a37565b90612c4e5760405162461bcd60e51b81526004016105689190613bee565b5050505050505050565b6001600160a01b03811660009081526008602052604090205460ff16151560011480612cd5576001600160a01b0382166000818152600860209081526040808320805460ff191660019081179091556009805485526007909352922080546001600160a01b0319169093179092559054612cd19161404b565b6009555b5050565b606081600003612d005750506040805180820190915260018152600360fc1b602082015290565b8160005b8115612d2a5780612d1481613e0f565b9150612d239050600a83614085565b9150612d04565b6000816001600160401b03811115612d4457612d44613c21565b6040519080825280601f01601f191660200182016040528015612d6e576020820181803683370190505b5090505b84156123e557612d83600183614034565b9150612d90600a86614099565b612d9b90603061404b565b60f81b818381518110612db057612db0613de3565b60200101906001600160f81b031916908160001a905350612dd2600a86614085565b9450612d72565b6000610fa482846140ad565b6000610fa48284614085565b600685015460009081906001600160801b031685858215612f01576000612e18848861326d565b9050612e24818a61303b565b92506001600160801b03831115612e3b6013611a37565b90612e595760405162461bcd60e51b81526004016105689190613bee565b5060058b0180546001600160801b0319166001600160801b0385161790558915612eff5760068b0154600090612e9f90600160801b90046001600160801b0316896131b5565b9050612eab818a61303b565b92506001600160801b03831115612ec26014611a37565b90612ee05760405162461bcd60e51b81526004016105689190613bee565b505060058b0180546001600160801b03808516600160801b0291161790555b505b600799909901805464ffffffffff19164264ffffffffff16179055989650505050505050565b612f596040518060a0016040528060008152602001600081526020016000815260200160008152602001600081525090565b600486015460808201819052600003612f72575061068a565b612f7c858561303b565b6020820152612f8b858361303b565b8082526020820151612f9d91906121f5565b604082018190526080820151612fb391906131f5565b60608201819052156130335760078601546060820151604051637df5bd3b60e01b8152600481019190915260248101859052600160281b9091046001600160a01b031690637df5bd3b90604401600060405180830381600087803b15801561301a57600080fd5b505af115801561302e573d6000803e3d6000fd5b505050505b505050505050565b6000821580613048575081155b15613055575060006110ab565b8161306c6002676765c793fa10079d601b1b614085565b61307890600019614034565b6130829190614085565b83111561308f6004611a37565b906130ad5760405162461bcd60e51b81526004016105689190613bee565b50676765c793fa10079d601b1b6130c5600282614085565b6130cf84866140ad565b6130d9919061404b565b610fa49190614085565b6000613138826040518060400160405280602081526020017f5361666545524332303a206c6f772d6c6576656c2063616c6c206661696c6564815250856001600160a01b03166132b19092919063ffffffff16565b805190915015610c7b57808060200190518101906131569190613f00565b610c7b5760405162461bcd60e51b815260206004820152602a60248201527f5361666545524332303a204552433230206f7065726174696f6e20646964206e6044820152691bdd081cdd58d8d9595960b21b6064820152608401610568565b6000610fa48383426132c0565b6000610fa4828461404b565b6000826000036131e15750600019610fa4565b6123e5836131ef86856131f5565b906133bf565b6000821580613202575081155b1561320f575060006110ab565b8161321d6002612710614085565b61322990600019614034565b6132339190614085565b8311156132406004611a37565b9061325e5760405162461bcd60e51b81526004016105689190613bee565b506127106130c5600282614085565b6000806132814264ffffffffff85166121f5565b90506123e5676765c793fa10079d601b1b6301e133806132a18785612dd9565b6132ab9190614085565b906131c2565b60606123e5848460008561346f565b6000806132d48364ffffffffff86166121f5565b9050806000036132f257676765c793fa10079d601b1b915050610fa4565b60006132ff600183614034565b905060006002831161331257600061331d565b61331d600284614034565b9050600061332f6301e1338089614085565b9050600061333d828061303b565b9050600061334b828461303b565b90506000600261335f84611bfb8a8a612dd9565b6133699190614085565b90506000600661337f84611bfb89818d8d612dd9565b6133899190614085565b90506133af816132ab848161339e8a8e612dd9565b676765c793fa10079d601b1b6132ab565b9c9b505050505050505050505050565b60008115156133ce6005611a37565b906133ec5760405162461bcd60e51b81526004016105689190613bee565b5060006133fa600284614085565b9050670de0b6b3a764000061341182600019614034565b61341b9190614085565b8411156134286004611a37565b906134465760405162461bcd60e51b81526004016105689190613bee565b50828161345b670de0b6b3a7640000876140ad565b613465919061404b565b6123e59190614085565b6060824710156134d05760405162461bcd60e51b815260206004820152602660248201527f416464726573733a20696e73756666696369656e742062616c616e636520666f6044820152651c8818d85b1b60d21b6064820152608401610568565b6134d98561228b565b6135255760405162461bcd60e51b815260206004820152601d60248201527f416464726573733a2063616c6c20746f206e6f6e2d636f6e74726163740000006044820152606401610568565b600080866001600160a01b031685876040516135419190613bd2565b60006040518083038185875af1925050503d806000811461357e576040519150601f19603f3d011682016040523d82523d6000602084013e613583565b606091505b509150915061359382828661359e565b979650505050505050565b606083156135ad575081610fa4565b8251156135bd5782518084602001fd5b8160405162461bcd60e51b81526004016105689190613bee565b6040518061014001604052806135eb613632565b815260006020820181905260408201819052606082018190526080820181905260a0820181905260c0820181905260e0820181905261010082018190526101209091015290565b604051806101000160405280600081526020016000815260200160008152602001600060ff168152602001600015158152602001600015158152602001600015158152602001600081525090565b6001600160a01b03811681146111c257600080fd5b80151581146111c257600080fd5b600080600080600060a086880312156136bb57600080fd5b85356136c681613680565b945060208601356136d681613680565b935060408601356136e681613680565b92506060860135915060808601356136fd81613695565b809150509295509295909350565b6000806040838503121561371e57600080fd5b823561372981613680565b9150602083013561373981613680565b809150509250929050565b6000806000806080858703121561375a57600080fd5b843561376581613680565b93506020850135925060408501359150606085013561378381613680565b939692955090935050565b6000602082840312156137a057600080fd5b8135610fa481613680565b80518252602081015160208301526040810151604083015260ff606082015116606083015260808101511515608083015260a0810151151560a083015260c0810151151560c083015260e081015160e08301525050565b6001600160801b03169052565b6001600160a01b03169052565b6000610220820190506138308284516137ab565b602083015161010061384481850183613802565b6040850151915061012061385a81860184613802565b6060860151925061386f610140860184613802565b60808601519250613884610160860184613802565b60a086015164ffffffffff1661018086015260c086015192506138ab6101a086018461380f565b60e086015192506138c06101c086018461380f565b8186015192506138d46101e086018461380f565b8086015161020086015250505092915050565b600080604083850312156138fa57600080fd5b823561390581613680565b9150602083013561373981613695565b60008060006060848603121561392a57600080fd5b833561393581613680565b925060208401359150604084013561394c81613680565b809150509250925092565b6000806000806080858703121561396d57600080fd5b843561397881613680565b9350602085013561398881613680565b9250604085013561399881613680565b9150606085013561378381613680565b600080604083850312156139bb57600080fd5b82356139c681613680565b946020939093013593505050565b600080604083850312156139e757600080fd5b82359150602083013561373981613680565b600060208284031215613a0b57600080fd5b8135610fa481613695565b61010081016110ab82846137ab565b6020808252825182820181905260009190848201906040850190845b81811015613a665783516001600160a01b031683529284019291840191600101613a41565b50909695505050505050565b600080828403610120811215613a8757600080fd5b8335613a9281613680565b9250610100601f1982011215613aa757600080fd5b506020830190509250929050565b600080600080600060a08688031215613acd57600080fd5b8535613ad881613680565b94506020860135613ae881613680565b93506040860135613af881613680565b94979396509394606081013594506080013592915050565b60008060008060008060c08789031215613b2957600080fd5b8635613b3481613680565b95506020870135613b4481613680565b94506040870135613b5481613680565b959894975094956060810135955060808101359460a0909101359350915050565b6001600160a01b0391909116815260200190565b600060208284031215613b9b57600080fd5b8151610fa481613680565b60005b83811015613bc1578181015183820152602001613ba9565b838111156110845750506000910152565b60008251613be4818460208701613ba6565b9190910192915050565b6020815260008251806020840152613c0d816040850160208701613ba6565b601f01601f19169190910160400192915050565b634e487b7160e01b600052604160045260246000fd5b60008060408385031215613c4a57600080fd5b8251915060208301516001600160401b0380821115613c6857600080fd5b818501915085601f830112613c7c57600080fd5b815181811115613c8e57613c8e613c21565b604051601f8201601f19908116603f01168101908382118183101715613cb657613cb6613c21565b81604052828152886020848701011115613ccf57600080fd5b613ce0836020830160208801613ba6565b80955050505050509250929050565b600060208284031215613d0157600080fd5b5051919050565b634e487b7160e01b600052602160045260246000fd5b8581526020810185905260a0810160028510613d4a57634e487b7160e01b600052602160045260246000fd5b60408201949094526001600160a01b0392909216606083015260809091015292915050565b6001600160a01b0393909316835260208301919091526001600160801b0316604082015260600190565b6001600160a01b03929092168252602082015260400190565b6001600160a01b03948516815292909316602083015260408201526001600160801b03909116606082015260800190565b634e487b7160e01b600052603260045260246000fd5b634e487b7160e01b600052601160045260246000fd5b600060018201613e2157613e21613df9565b5060010190565b600081356110ab81613695565b81358155602082013560018201556040820135600282015560038101606083013560ff8116808214613e6657600080fd5b825460ff191617825550613e99613e7f60808501613e28565b82805461ff00191691151560081b61ff0016919091179055565b613ec4613ea860a08501613e28565b82805462ff0000191691151560101b62ff000016919091179055565b613ef1613ed360c08501613e28565b82805463ff000000191691151560181b63ff00000016919091179055565b5060e082013560048201555050565b600060208284031215613f1257600080fd5b8151610fa481613695565b600181815b80851115613f58578160001904821115613f3e57613f3e613df9565b80851615613f4b57918102915b93841c9390800290613f22565b509250929050565b600082613f6f575060016110ab565b81613f7c575060006110ab565b8160018114613f925760028114613f9c57613fb8565b60019150506110ab565b60ff841115613fad57613fad613df9565b50506001821b6110ab565b5060208310610133831016604e8410600b8410161715613fdb575081810a6110ab565b613fe58383613f1d565b8060001904821115613ff957613ff9613df9565b029392505050565b6000610fa460ff841683613f60565b6000806040838503121561402357600080fd5b505080516020909101519092909150565b60008282101561404657614046613df9565b500390565b6000821982111561405e5761405e613df9565b500190565b6000610fa48383613f60565b634e487b7160e01b600052601260045260246000fd5b6000826140945761409461406f565b500490565b6000826140a8576140a861406f565b500690565b60008160001904831182151516156140c7576140c7613df9565b50029056fe44c58d81365b66dd4b1a7f36c25aa97b8c71c361ee4937adc1a00000227db5dd00058a56ea94653cdf4f152d227ace22d4c00ad99e2a43f58cb7d9e3feb295f2a26469706673582212205f57ca175e9d3c4498330940a0923e6f534461333cdfedcd12d050837068139f64736f6c634300080e0033",
  "linkReferences": {
    "contracts/Library/Logic/ReserveLogic.sol": {
      "ReserveLogic": [
        {
          "length": 20,
          "start": 4304
        }
      ]
    },
    "contracts/Library/Logic/ValidationLogic.sol": {
      "ValidationLogic": [
        {
          "length": 20,
          "start": 2322
        },
        {
          "length": 20,
          "start": 2974
        },
        {
          "length": 20,
          "start": 3533
        },
        {
          "length": 20,
          "start": 4504
        },
        {
          "length": 20,
          "start": 5692
        },
        {
          "length": 20,
          "start": 6352
        },
        {
          "length": 20,
          "start": 7466
        }
      ]
    }
  },
  "deployedLinkReferences": {
    "contracts/Library/Logic/ReserveLogic.sol": {
      "ReserveLogic": [
        {
          "length": 20,
          "start": 4142
        }
      ]
    },
    "contracts/Library/Logic/ValidationLogic.sol": {
      "ValidationLogic": [
        {
          "length": 20,
          "start": 2160
        },
        {
          "length": 20,
          "start": 2812
        },
        {
          "length": 20,
          "start": 3371
        },
        {
          "length": 20,
          "start": 4342
        },
        {
          "length": 20,
          "start": 5530
        },
        {
          "length": 20,
          "start": 6190
        },
        {
          "length": 20,
          "start": 7304
        }
      ]
    }
  }
}