{
  "_format": "hh-sol-artifact-1",
  "contractName": "LendingPool",
  "sourceName": "contracts/Pool/LendingPool.sol",
  "abi": [
    {
      "inputs": [
        {
          "internalType": "contract ILendingPoolAddressesProvider",
          "name": "provider",
          "type": "address"
        }
      ],
      "stateMutability": "nonpayable",
      "type": "constructor"
    },
    {
      "anonymous": false,
      "inputs": [
        {
          "indexed": true,
          "internalType": "address",
          "name": "reserve",
          "type": "address"
        },
        {
          "indexed": false,
          "internalType": "address",
          "name": "user",
          "type": "address"
        },
        {
          "indexed": true,
          "internalType": "address",
          "name": "onBehalfOf",
          "type": "address"
        },
        {
          "indexed": false,
          "internalType": "uint256",
          "name": "amount",
          "type": "uint256"
        },
        {
          "indexed": false,
          "internalType": "uint256",
          "name": "borrowRateMode",
          "type": "uint256"
        },
        {
          "indexed": false,
          "internalType": "uint256",
          "name": "borrowRate",
          "type": "uint256"
        }
      ],
      "name": "Borrow",
      "type": "event"
    },
    {
      "anonymous": false,
      "inputs": [
        {
          "indexed": true,
          "internalType": "address",
          "name": "reserve",
          "type": "address"
        },
        {
          "indexed": false,
          "internalType": "address",
          "name": "user",
          "type": "address"
        },
        {
          "indexed": true,
          "internalType": "address",
          "name": "onBehalfOf",
          "type": "address"
        },
        {
          "indexed": false,
          "internalType": "uint256",
          "name": "amount",
          "type": "uint256"
        }
      ],
      "name": "Deposit",
      "type": "event"
    },
    {
      "anonymous": false,
      "inputs": [
        {
          "indexed": true,
          "internalType": "address",
          "name": "collateralAsset",
          "type": "address"
        },
        {
          "indexed": true,
          "internalType": "address",
          "name": "debtAsset",
          "type": "address"
        },
        {
          "indexed": true,
          "internalType": "address",
          "name": "user",
          "type": "address"
        },
        {
          "indexed": false,
          "internalType": "uint256",
          "name": "debtToCover",
          "type": "uint256"
        },
        {
          "indexed": false,
          "internalType": "uint256",
          "name": "liquidatedCollateralAmount",
          "type": "uint256"
        },
        {
          "indexed": false,
          "internalType": "address",
          "name": "liquidator",
          "type": "address"
        },
        {
          "indexed": false,
          "internalType": "bool",
          "name": "receiveAToken",
          "type": "bool"
        }
      ],
      "name": "LiquidationCall",
      "type": "event"
    },
    {
      "anonymous": false,
      "inputs": [],
      "name": "Paused",
      "type": "event"
    },
    {
      "anonymous": false,
      "inputs": [
        {
          "indexed": true,
          "internalType": "address",
          "name": "reserve",
          "type": "address"
        },
        {
          "indexed": true,
          "internalType": "address",
          "name": "user",
          "type": "address"
        },
        {
          "indexed": true,
          "internalType": "address",
          "name": "repayer",
          "type": "address"
        },
        {
          "indexed": false,
          "internalType": "uint256",
          "name": "amount",
          "type": "uint256"
        }
      ],
      "name": "Repay",
      "type": "event"
    },
    {
      "anonymous": false,
      "inputs": [
        {
          "indexed": true,
          "internalType": "address",
          "name": "reserve",
          "type": "address"
        },
        {
          "indexed": false,
          "internalType": "uint256",
          "name": "liquidityRate",
          "type": "uint256"
        },
        {
          "indexed": false,
          "internalType": "uint256",
          "name": "stableBorrowRate",
          "type": "uint256"
        },
        {
          "indexed": false,
          "internalType": "uint256",
          "name": "variableBorrowRate",
          "type": "uint256"
        },
        {
          "indexed": false,
          "internalType": "uint256",
          "name": "liquidityIndex",
          "type": "uint256"
        },
        {
          "indexed": false,
          "internalType": "uint256",
          "name": "variableBorrowIndex",
          "type": "uint256"
        }
      ],
      "name": "ReserveDataUpdated",
      "type": "event"
    },
    {
      "anonymous": false,
      "inputs": [
        {
          "indexed": true,
          "internalType": "address",
          "name": "reserve",
          "type": "address"
        },
        {
          "indexed": true,
          "internalType": "address",
          "name": "user",
          "type": "address"
        }
      ],
      "name": "ReserveUsedAsCollateralDisabled",
      "type": "event"
    },
    {
      "anonymous": false,
      "inputs": [
        {
          "indexed": true,
          "internalType": "address",
          "name": "reserve",
          "type": "address"
        },
        {
          "indexed": true,
          "internalType": "address",
          "name": "user",
          "type": "address"
        }
      ],
      "name": "ReserveUsedAsCollateralEnabled",
      "type": "event"
    },
    {
      "anonymous": false,
      "inputs": [],
      "name": "Unpaused",
      "type": "event"
    },
    {
      "anonymous": false,
      "inputs": [
        {
          "indexed": true,
          "internalType": "address",
          "name": "reserve",
          "type": "address"
        },
        {
          "indexed": true,
          "internalType": "address",
          "name": "user",
          "type": "address"
        },
        {
          "indexed": true,
          "internalType": "address",
          "name": "to",
          "type": "address"
        },
        {
          "indexed": false,
          "internalType": "uint256",
          "name": "amount",
          "type": "uint256"
        }
      ],
      "name": "Withdraw",
      "type": "event"
    },
    {
      "inputs": [],
      "name": "MAX_LEVERAGE",
      "outputs": [
        {
          "internalType": "uint256",
          "name": "",
          "type": "uint256"
        }
      ],
      "stateMutability": "view",
      "type": "function"
    },
    {
      "inputs": [],
      "name": "MAX_NUMBER_RESERVES",
      "outputs": [
        {
          "internalType": "uint256",
          "name": "",
          "type": "uint256"
        }
      ],
      "stateMutability": "view",
      "type": "function"
    },
    {
      "inputs": [],
      "name": "POSITION_LIQUIDATION_THRESHOLD",
      "outputs": [
        {
          "internalType": "uint256",
          "name": "",
          "type": "uint256"
        }
      ],
      "stateMutability": "view",
      "type": "function"
    },
    {
      "inputs": [
        {
          "internalType": "address",
          "name": "asset",
          "type": "address"
        },
        {
          "internalType": "uint256",
          "name": "amount",
          "type": "uint256"
        },
        {
          "internalType": "uint256",
          "name": "interestRateMode",
          "type": "uint256"
        },
        {
          "internalType": "address",
          "name": "onBehalfOf",
          "type": "address"
        }
      ],
      "name": "borrow",
      "outputs": [],
      "stateMutability": "nonpayable",
      "type": "function"
    },
    {
      "inputs": [
        {
          "internalType": "uint256",
          "name": "id",
          "type": "uint256"
        }
      ],
      "name": "closePosition",
      "outputs": [
        {
          "internalType": "uint256",
          "name": "paymentAmount",
          "type": "uint256"
        },
        {
          "internalType": "int256",
          "name": "pnl",
          "type": "int256"
        }
      ],
      "stateMutability": "nonpayable",
      "type": "function"
    },
    {
      "inputs": [
        {
          "internalType": "address",
          "name": "asset",
          "type": "address"
        },
        {
          "internalType": "uint256",
          "name": "amount",
          "type": "uint256"
        },
        {
          "internalType": "address",
          "name": "onBehalfOf",
          "type": "address"
        }
      ],
      "name": "deposit",
      "outputs": [],
      "stateMutability": "nonpayable",
      "type": "function"
    },
    {
      "inputs": [
        {
          "internalType": "address",
          "name": "asset",
          "type": "address"
        },
        {
          "internalType": "address",
          "name": "from",
          "type": "address"
        },
        {
          "internalType": "address",
          "name": "to",
          "type": "address"
        },
        {
          "internalType": "uint256",
          "name": "amount",
          "type": "uint256"
        },
        {
          "internalType": "uint256",
          "name": "balanceFromBefore",
          "type": "uint256"
        },
        {
          "internalType": "uint256",
          "name": "balanceToBefore",
          "type": "uint256"
        }
      ],
      "name": "finalizeTransfer",
      "outputs": [],
      "stateMutability": "nonpayable",
      "type": "function"
    },
    {
      "inputs": [],
      "name": "getAddressesProvider",
      "outputs": [
        {
          "internalType": "contract ILendingPoolAddressesProvider",
          "name": "",
          "type": "address"
        }
      ],
      "stateMutability": "view",
      "type": "function"
    },
    {
      "inputs": [
        {
          "internalType": "address",
          "name": "asset",
          "type": "address"
        }
      ],
      "name": "getConfiguration",
      "outputs": [
        {
          "components": [
            {
              "internalType": "uint256",
              "name": "ltv",
              "type": "uint256"
            },
            {
              "internalType": "uint256",
              "name": "liquidationThreshold",
              "type": "uint256"
            },
            {
              "internalType": "uint256",
              "name": "liquidationBonus",
              "type": "uint256"
            },
            {
              "internalType": "uint8",
              "name": "decimals",
              "type": "uint8"
            },
            {
              "internalType": "bool",
              "name": "active",
              "type": "bool"
            },
            {
              "internalType": "bool",
              "name": "frozen",
              "type": "bool"
            },
            {
              "internalType": "bool",
              "name": "borrowingEnabled",
              "type": "bool"
            },
            {
              "internalType": "uint256",
              "name": "reserveFactor",
              "type": "uint256"
            }
          ],
          "internalType": "struct DataTypes.ReserveConfiguration",
          "name": "",
          "type": "tuple"
        }
      ],
      "stateMutability": "view",
      "type": "function"
    },
    {
      "inputs": [
        {
          "internalType": "address",
          "name": "asset",
          "type": "address"
        }
      ],
      "name": "getReserveData",
      "outputs": [
        {
          "components": [
            {
              "components": [
                {
                  "internalType": "uint256",
                  "name": "ltv",
                  "type": "uint256"
                },
                {
                  "internalType": "uint256",
                  "name": "liquidationThreshold",
                  "type": "uint256"
                },
                {
                  "internalType": "uint256",
                  "name": "liquidationBonus",
                  "type": "uint256"
                },
                {
                  "internalType": "uint8",
                  "name": "decimals",
                  "type": "uint8"
                },
                {
                  "internalType": "bool",
                  "name": "active",
                  "type": "bool"
                },
                {
                  "internalType": "bool",
                  "name": "frozen",
                  "type": "bool"
                },
                {
                  "internalType": "bool",
                  "name": "borrowingEnabled",
                  "type": "bool"
                },
                {
                  "internalType": "uint256",
                  "name": "reserveFactor",
                  "type": "uint256"
                }
              ],
              "internalType": "struct DataTypes.ReserveConfiguration",
              "name": "configuration",
              "type": "tuple"
            },
            {
              "internalType": "uint128",
              "name": "liquidityIndex",
              "type": "uint128"
            },
            {
              "internalType": "uint128",
              "name": "borrowIndex",
              "type": "uint128"
            },
            {
              "internalType": "uint128",
              "name": "currentLiquidityRate",
              "type": "uint128"
            },
            {
              "internalType": "uint128",
              "name": "currentBorrowRate",
              "type": "uint128"
            },
            {
              "internalType": "uint40",
              "name": "lastUpdateTimestamp",
              "type": "uint40"
            },
            {
              "internalType": "address",
              "name": "kTokenAddress",
              "type": "address"
            },
            {
              "internalType": "address",
              "name": "dTokenAddress",
              "type": "address"
            },
            {
              "internalType": "address",
              "name": "interestRateStrategyAddress",
              "type": "address"
            },
            {
              "internalType": "uint256",
              "name": "id",
              "type": "uint256"
            }
          ],
          "internalType": "struct DataTypes.ReserveData",
          "name": "",
          "type": "tuple"
        }
      ],
      "stateMutability": "view",
      "type": "function"
    },
    {
      "inputs": [
        {
          "internalType": "address",
          "name": "asset",
          "type": "address"
        }
      ],
      "name": "getReserveNormalizedDebt",
      "outputs": [
        {
          "internalType": "uint256",
          "name": "",
          "type": "uint256"
        }
      ],
      "stateMutability": "view",
      "type": "function"
    },
    {
      "inputs": [
        {
          "internalType": "address",
          "name": "asset",
          "type": "address"
        }
      ],
      "name": "getReserveNormalizedIncome",
      "outputs": [
        {
          "internalType": "uint256",
          "name": "",
          "type": "uint256"
        }
      ],
      "stateMutability": "view",
      "type": "function"
    },
    {
      "inputs": [],
      "name": "getReservesList",
      "outputs": [
        {
          "internalType": "address[]",
          "name": "",
          "type": "address[]"
        }
      ],
      "stateMutability": "view",
      "type": "function"
    },
    {
      "inputs": [],
      "name": "getTraderPositions",
      "outputs": [
        {
          "components": [
            {
              "internalType": "address",
              "name": "traderAddress",
              "type": "address"
            },
            {
              "internalType": "address",
              "name": "marginTokenAddress",
              "type": "address"
            },
            {
              "internalType": "address",
              "name": "borrowedTokenAddress",
              "type": "address"
            },
            {
              "internalType": "address",
              "name": "heldTokenAddress",
              "type": "address"
            },
            {
              "internalType": "uint256",
              "name": "marginAmount",
              "type": "uint256"
            },
            {
              "internalType": "uint256",
              "name": "borrowedAmount",
              "type": "uint256"
            },
            {
              "internalType": "uint256",
              "name": "heldAmount",
              "type": "uint256"
            },
            {
              "internalType": "uint256",
              "name": "liquidationThreshold",
              "type": "uint256"
            },
            {
              "internalType": "uint256",
              "name": "id",
              "type": "uint256"
            },
            {
              "internalType": "bool",
              "name": "isOpen",
              "type": "bool"
            }
          ],
          "internalType": "struct DataTypes.TraderPosition[]",
          "name": "positions",
          "type": "tuple[]"
        }
      ],
      "stateMutability": "view",
      "type": "function"
    },
    {
      "inputs": [
        {
          "internalType": "address",
          "name": "user",
          "type": "address"
        }
      ],
      "name": "getUserAccountData",
      "outputs": [
        {
          "internalType": "uint256",
          "name": "totalCollateralETH",
          "type": "uint256"
        },
        {
          "internalType": "uint256",
          "name": "totalDebtETH",
          "type": "uint256"
        },
        {
          "internalType": "uint256",
          "name": "availableBorrowsETH",
          "type": "uint256"
        },
        {
          "internalType": "uint256",
          "name": "currentLiquidationThreshold",
          "type": "uint256"
        },
        {
          "internalType": "uint256",
          "name": "ltv",
          "type": "uint256"
        },
        {
          "internalType": "uint256",
          "name": "healthFactor",
          "type": "uint256"
        }
      ],
      "stateMutability": "view",
      "type": "function"
    },
    {
      "inputs": [
        {
          "internalType": "address",
          "name": "user",
          "type": "address"
        },
        {
          "internalType": "uint256",
          "name": "id",
          "type": "uint256"
        }
      ],
      "name": "getUserConfiguration",
      "outputs": [
        {
          "internalType": "bool",
          "name": "",
          "type": "bool"
        },
        {
          "internalType": "bool",
          "name": "",
          "type": "bool"
        }
      ],
      "stateMutability": "view",
      "type": "function"
    },
    {
      "inputs": [],
      "name": "getUsersList",
      "outputs": [
        {
          "internalType": "address[]",
          "name": "",
          "type": "address[]"
        }
      ],
      "stateMutability": "view",
      "type": "function"
    },
    {
      "inputs": [
        {
          "internalType": "address",
          "name": "asset",
          "type": "address"
        },
        {
          "internalType": "address",
          "name": "kTokenAddress",
          "type": "address"
        },
        {
          "internalType": "address",
          "name": "dTokenAddress",
          "type": "address"
        },
        {
          "internalType": "address",
          "name": "interestRateStrategyAddress",
          "type": "address"
        }
      ],
      "name": "initReserve",
      "outputs": [],
      "stateMutability": "nonpayable",
      "type": "function"
    },
    {
      "inputs": [
        {
          "internalType": "address",
          "name": "collateralAsset",
          "type": "address"
        },
        {
          "internalType": "address",
          "name": "debtAsset",
          "type": "address"
        },
        {
          "internalType": "address",
          "name": "user",
          "type": "address"
        },
        {
          "internalType": "uint256",
          "name": "debtToCover",
          "type": "uint256"
        },
        {
          "internalType": "bool",
          "name": "receiveAToken",
          "type": "bool"
        }
      ],
      "name": "liquidationCall",
      "outputs": [],
      "stateMutability": "nonpayable",
      "type": "function"
    },
    {
      "inputs": [],
      "name": "liquidationCallPosition",
      "outputs": [],
      "stateMutability": "nonpayable",
      "type": "function"
    },
    {
      "inputs": [
        {
          "internalType": "address",
          "name": "marginAsset",
          "type": "address"
        },
        {
          "internalType": "address",
          "name": "borrowedAsset",
          "type": "address"
        },
        {
          "internalType": "address",
          "name": "heldAsset",
          "type": "address"
        },
        {
          "internalType": "uint256",
          "name": "marginAmount",
          "type": "uint256"
        },
        {
          "internalType": "uint256",
          "name": "leverage",
          "type": "uint256"
        }
      ],
      "name": "openPosition",
      "outputs": [
        {
          "components": [
            {
              "internalType": "address",
              "name": "traderAddress",
              "type": "address"
            },
            {
              "internalType": "address",
              "name": "marginTokenAddress",
              "type": "address"
            },
            {
              "internalType": "address",
              "name": "borrowedTokenAddress",
              "type": "address"
            },
            {
              "internalType": "address",
              "name": "heldTokenAddress",
              "type": "address"
            },
            {
              "internalType": "uint256",
              "name": "marginAmount",
              "type": "uint256"
            },
            {
              "internalType": "uint256",
              "name": "borrowedAmount",
              "type": "uint256"
            },
            {
              "internalType": "uint256",
              "name": "heldAmount",
              "type": "uint256"
            },
            {
              "internalType": "uint256",
              "name": "liquidationThreshold",
              "type": "uint256"
            },
            {
              "internalType": "uint256",
              "name": "id",
              "type": "uint256"
            },
            {
              "internalType": "bool",
              "name": "isOpen",
              "type": "bool"
            }
          ],
          "internalType": "struct DataTypes.TraderPosition",
          "name": "position",
          "type": "tuple"
        }
      ],
      "stateMutability": "nonpayable",
      "type": "function"
    },
    {
      "inputs": [],
      "name": "paused",
      "outputs": [
        {
          "internalType": "bool",
          "name": "",
          "type": "bool"
        }
      ],
      "stateMutability": "view",
      "type": "function"
    },
    {
      "inputs": [
        {
          "internalType": "address",
          "name": "asset",
          "type": "address"
        },
        {
          "internalType": "uint256",
          "name": "amount",
          "type": "uint256"
        },
        {
          "internalType": "uint256",
          "name": "rateMode",
          "type": "uint256"
        },
        {
          "internalType": "address",
          "name": "onBehalfOf",
          "type": "address"
        }
      ],
      "name": "repay",
      "outputs": [
        {
          "internalType": "uint256",
          "name": "",
          "type": "uint256"
        }
      ],
      "stateMutability": "nonpayable",
      "type": "function"
    },
    {
      "inputs": [
        {
          "internalType": "address",
          "name": "asset",
          "type": "address"
        },
        {
          "components": [
            {
              "internalType": "uint256",
              "name": "ltv",
              "type": "uint256"
            },
            {
              "internalType": "uint256",
              "name": "liquidationThreshold",
              "type": "uint256"
            },
            {
              "internalType": "uint256",
              "name": "liquidationBonus",
              "type": "uint256"
            },
            {
              "internalType": "uint8",
              "name": "decimals",
              "type": "uint8"
            },
            {
              "internalType": "bool",
              "name": "active",
              "type": "bool"
            },
            {
              "internalType": "bool",
              "name": "frozen",
              "type": "bool"
            },
            {
              "internalType": "bool",
              "name": "borrowingEnabled",
              "type": "bool"
            },
            {
              "internalType": "uint256",
              "name": "reserveFactor",
              "type": "uint256"
            }
          ],
          "internalType": "struct DataTypes.ReserveConfiguration",
          "name": "configuration",
          "type": "tuple"
        }
      ],
      "name": "setConfiguration",
      "outputs": [],
      "stateMutability": "nonpayable",
      "type": "function"
    },
    {
      "inputs": [
        {
          "internalType": "bool",
          "name": "val",
          "type": "bool"
        }
      ],
      "name": "setPause",
      "outputs": [],
      "stateMutability": "nonpayable",
      "type": "function"
    },
    {
      "inputs": [
        {
          "internalType": "address",
          "name": "asset",
          "type": "address"
        },
        {
          "internalType": "address",
          "name": "rateStrategyAddress",
          "type": "address"
        }
      ],
      "name": "setReserveInterestRateStrategyAddress",
      "outputs": [],
      "stateMutability": "nonpayable",
      "type": "function"
    },
    {
      "inputs": [
        {
          "internalType": "address",
          "name": "asset",
          "type": "address"
        },
        {
          "internalType": "bool",
          "name": "useAsCollateral",
          "type": "bool"
        }
      ],
      "name": "setUserUseReserveAsCollateral",
      "outputs": [],
      "stateMutability": "nonpayable",
      "type": "function"
    },
    {
      "inputs": [
        {
          "internalType": "address",
          "name": "asset",
          "type": "address"
        },
        {
          "internalType": "uint256",
          "name": "amount",
          "type": "uint256"
        },
        {
          "internalType": "address",
          "name": "to",
          "type": "address"
        }
      ],
      "name": "withdraw",
      "outputs": [
        {
          "internalType": "uint256",
          "name": "",
          "type": "uint256"
        }
      ],
      "stateMutability": "nonpayable",
      "type": "function"
    }
  ],
  "bytecode": "0x60806040523480156200001157600080fd5b5060405162004c4e38038062004c4e83398101604081905262000034916200007f565b600080546001600160a01b0319166001600160a01b0392909216919091179055600019600c556b409f9cbc7c4a04c220000000600f556aa56fa5b99019a5c8000000600e55620000b1565b6000602082840312156200009257600080fd5b81516001600160a01b0381168114620000aa57600080fd5b9392505050565b614b8d80620000c16000396000f3fe608060405234801561001057600080fd5b50600436106101535760003560e01c8062a718a91461015857806305bbb29d1461016d5780631d2118f91461018b57806322e953ac1461019e57806335ea6a75146101b1578063573ade81146101d15780635a3b74b9146101f25780635c975abb1461020557806369328dec1461021b5780638bd256771461022e5780639a62d6b7146102415780639b45ec97146102a3578063a126d601146102ab578063a1bdfe7b146102d3578063a5b7ba32146102db578063acb0d87b1461016b578063bedb86fb146102ee578063bf92857c14610301578063c44b11f714610341578063c74e13f314610361578063c84555bd14610376578063d15e005314610389578063d1946dbc1461039c578063d2ceba1f146103a4578063d5ed3933146103c4578063f45346dc146103d7578063f8119d51146103ea578063fe65acfe146103f2575b600080fd5b61016b61016636600461401c565b61040b565b005b6101756105dc565b604051610182919061411d565b60405180910390f35b61016b61019936600461416c565b610740565b61016b6101ac3660046141a5565b610779565b6101c46101bf3660046141ef565b6107f5565b6040516101829190614270565b6101e46101df3660046141a5565b61091b565b604051908152602001610182565b61016b61020036600461433b565b610c1b565b600b5460ff166040519015158152602001610182565b6101e4610229366004614369565b610de4565b61016b61023c3660046143ab565b61110f565b61028c61024f3660046143fc565b6001600160a01b0391909116600090815260026020908152604080832093835283825280832054600190940190915290205460ff91821692911690565b604080519215158352901515602083015201610182565b600f546101e4565b6102be6102b9366004614428565b6111ee565b60408051928352602083019190915201610182565b600e546101e4565b6101e46102e93660046141ef565b611447565b61016b6102fc366004614441565b61146e565b61031461030f3660046141ef565b6114e8565b604080519687526020870195909552938501929092526060840152608083015260a082015260c001610182565b61035461034f3660046141ef565b6115be565b604051610182919061445e565b610369611650565b604051610182919061446d565b61016b6103843660046144ae565b611706565b6101e46103973660046141ef565b611732565b610369611753565b6103b76103b23660046144f1565b611803565b604051610182919061454c565b61016b6103d236600461455b565b611c56565b61016b6103e5366004614369565b611e3e565b600c546101e4565b6000546001600160a01b031660405161018291906145c0565b610413612056565b6000805460405163e0e8d3db60e01b81526001600160a01b039091169063e0e8d3db906104449030906004016145c0565b602060405180830381865afa158015610461573d6000803e3d6000fd5b505050506040513d601f19601f8201168201806040525081019061048591906145d4565b6040516001600160a01b038881166024830152878116604483015286811660648301526084820186905284151560a483015291925060009182919084169060c40160408051601f198184030181529181526020820180516001600160e01b031662a718a960e01b179052516104fa919061461d565b600060405180830381855af49150503d8060008114610535576040519150601f19603f3d011682016040523d82523d6000602084013e61053a565b606091505b50915091508161054a6011612085565b906105715760405162461bcd60e51b81526004016105689190614639565b60405180910390fd5b50600080828060200190518101906105899190614682565b9150915081600014816040516020016105a2919061461d565b604051602081830303815290604052906105cf5760405162461bcd60e51b81526004016105689190614639565b5050505050505050505050565b33600090815260056020526040902054606090806001600160401b038111156106075761060761466c565b60405190808252806020026020018201604052801561064057816020015b61062d613ed7565b8152602001906001900390816106255790505b50915060005b8181101561073b5733600090815260056020526040902080548290811061066f5761066f61473a565b60009182526020918290206040805161014081018252600a90930290910180546001600160a01b039081168452600182015481169484019490945260028101548416918301919091526003810154909216606082015260048201546080820152600582015460a0820152600682015460c0820152600782015460e0820152600882015461010082015260099091015460ff161515610120820152835184908390811061071d5761071d61473a565b6020026020010181905250808061073390614766565b915050610646565b505090565b6107486120a1565b6001600160a01b03918216600090815260016020526040902060090180546001600160a01b03191691909216179055565b610781612056565b6001600160a01b03808516600081815260016020818152604092839020835160e08101855294855233918501919091528585169284019290925260608301879052608083018690526007820154600160281b900490931660a083015260c08201929092526107ee90612126565b5050505050565b6107fd613f50565b506001600160a01b0390811660009081526001602081815260409283902083516102408101855281546101408201908152938201546101608201526002820154610180820152600382015460ff8082166101a0840152610100808304821615156101c0850152620100008304821615156101e08501526301000000909204161515610200830152600483015461022083015293815260058201546001600160801b0380821694830194909452600160801b9081900484169582019590955260068201548084166060830152949094049091166080840152600781015464ffffffffff811660a0850152600160281b9004841660c08401526008810154841660e0840152600981015490931690820152600a9091015461012082015290565b6000610925612056565b6001600160a01b03808616600090815260016020526040808220600881015491516370a0823160e01b8152909391909116906370a082319061096b9087906004016145c0565b602060405180830381865afa158015610988573d6000803e3d6000fd5b505050506040513d601f19601f820116820180604052508101906109ac919061477f565b905060008560018111156109c2576109c2614798565b604051636fff2fdf60e11b815290915073__$21c34b8e29a99d314827d472f0e1c85fe6$__9063dffe5fbe90610a049086908b9086908b9089906004016147ae565b60006040518083038186803b158015610a1c57600080fd5b505af4158015610a30573d6000803e3d6000fd5b50849250505080881015610a415750865b610a4a8461252f565b60088401546005850154604051637a94c56560e11b81526001600160a01b039092169163f5298aca91610a95918a918691600160801b9091046001600160801b0316906004016147ff565b600060405180830381600087803b158015610aaf57600080fd5b505af1158015610ac3573d6000803e3d6000fd5b505050506007840154600160281b90046001600160a01b0316610aea858b838560006125e9565b610af48483612843565b600003610b2e576001600160a01b0387166000908152600260209081526040808320600a89015484526001019091529020805460ff191690555b610b436001600160a01b038b1633308561284f565b610b576001600160a01b038b1682846128ba565b6040516388dd91a160e01b81526001600160a01b038216906388dd91a190610b859033908690600401614829565b600060405180830381600087803b158015610b9f57600080fd5b505af1158015610bb3573d6000803e3d6000fd5b50505050336001600160a01b0316876001600160a01b03168b6001600160a01b03167f4cdde6e09bb755c9a5589ebaec640bbfedff1362d4b255ebf8339782b9942faa85604051610c0691815260200190565b60405180910390a45098975050505050505050565b610c23612056565b6001600160a01b0380831660009081526001602081815260408084203385526002835281852060075495548351631f94a27560e31b81529351929773__$21c34b8e29a99d314827d472f0e1c85fe6$__97635fa297e5978a978d978d97929695600695169263fca513a8926004808401939192918290030181865afa158015610cb0573d6000803e3d6000fd5b505050506040513d601f19601f82011682018060405250810190610cd491906145d4565b6040516001600160e01b031960e08b901b16815260048101989098526001600160a01b03968716602489015294151560448801526064870193909352608486019190915260a485015260c48401521660e48201526101040160006040518083038186803b158015610d4457600080fd5b505af4158015610d58573d6000803e3d6000fd5b5050336000908152600260209081526040808320600a87015484529091529020805460ff191685158015919091179091559150610dba90505760405133906001600160a01b03851690600080516020614b3883398151915290600090a3505050565b60405133906001600160a01b03851690600080516020614b1883398151915290600090a35b505050565b6000610dee612056565b6001600160a01b03808516600090815260016020526040808220600781015491516370a0823160e01b81529093600160281b909204909116919082906370a0823190610e3e9033906004016145c0565b602060405180830381865afa158015610e5b573d6000803e3d6000fd5b505050506040513d601f19601f82011682018060405250810190610e7f919061477f565b90508560018101610e8d5750805b73__$21c34b8e29a99d314827d472f0e1c85fe6$__63d09db04a898385600160026000336001600160a01b03166001600160a01b03168152602001908152602001600020600660075460008054906101000a90046001600160a01b03166001600160a01b031663fca513a86040518163ffffffff1660e01b8152600401602060405180830381865afa158015610f27573d6000803e3d6000fd5b505050506040513d601f19601f82011682018060405250810190610f4b91906145d4565b60405160e08a901b6001600160e01b03191681526001600160a01b039889166004820152602481019790975260448701959095526064860193909352608485019190915260a484015260c483015290911660e48201526101040160006040518083038186803b158015610fbd57600080fd5b505af4158015610fd1573d6000803e3d6000fd5b50505050610fde8461252f565b610fec8489856000856125e9565b81810361103857336000818152600260209081526040808320600a8901548452909152808220805460ff19169055516001600160a01b038b1691600080516020614b1883398151915291a35b6005840154604051636b81068560e11b81526001600160a01b0385169163d7020d0a916110799133918b9187916001600160801b0390911690600401614842565b600060405180830381600087803b15801561109357600080fd5b505af11580156110a7573d6000803e3d6000fd5b50505050856001600160a01b0316336001600160a01b0316896001600160a01b03167f3115d1449a7b732c986cba18244e897a450f61e1bb8d589cd2e69e6c8924f9f7846040516110fa91815260200190565b60405180910390a493505050505b9392505050565b6111176120a1565b611120846128d9565b61112a600b612085565b906111485760405162461bcd60e51b81526004016105689190614639565b506001600160a01b03848116600090815260016020526040908190209051636047157f60e01b8152600481019190915284821660248201528382166044820152908216606482015273__$88ad6b597226e6a1892b63b4d2c629f9bc$__90636047157f9060840160006040518083038186803b1580156111c757600080fd5b505af41580156111db573d6000803e3d6000fd5b505050506111e8846128e8565b50505050565b6000806111f9612056565b60008381526003602052604090819020600281015491516303fb2ff160e01b8152336004820152602481018290526001600160a01b0390921660448301529073__$21c34b8e29a99d314827d472f0e1c85fe6$__906303fb2ff19060640160006040518083038186803b15801561126f57600080fd5b505af4158015611283573d6000803e3d6000fd5b5050505073__$4704719058cb47f66e81a2e55cafd4efea$__63f974324582600160008054906101000a90046001600160a01b03166001600160a01b031663fca513a86040518163ffffffff1660e01b8152600401602060405180830381865afa1580156112f5573d6000803e3d6000fd5b505050506040513d601f19601f8201168201806040525081019061131991906145d4565b6040516001600160e01b031960e086901b168152600481019390935260248301919091526001600160a01b03166044820152606401602060405180830381865af415801561136b573d6000803e3d6000fd5b505050506040513d601f19601f8201168201806040525081019061138f919061477f565b91506000806113b583600501546113af83856129cf90919063ffffffff16565b90612843565b6000878152600360208190526040822080546001600160a01b03199081168255600182018054821690556002808301805483169055928201805490911690556004810183905560058101839055600681018390556007810183905560088101929092556009909101805460ff1916905584015490955061143f906001600160a01b031633876128ba565b505050915091565b6001600160a01b0381166000908152600160205260408120611468906129db565b92915050565b6114766120a1565b600b805460ff191682151590811790915560ff16156114bb576040517f9e87fac88ff661f02d44f95383c817fece4bce600a3dab7a54406878b965e75290600090a150565b6040517fa45f47fdea8a1efdd9029a5691c7f759c32b7c698632b563573e155625d1693390600090a15b50565b60008060008060008061159b876001600260008b6001600160a01b03166001600160a01b03168152602001908152602001600020600660075460008054906101000a90046001600160a01b03166001600160a01b031663fca513a86040518163ffffffff1660e01b8152600401602060405180830381865afa158015611572573d6000803e3d6000fd5b505050506040513d601f19601f8201168201806040525081019061159691906145d4565b612a47565b939950919750909450925090506115b38686846131d6565b935091939550919395565b6115c6613fab565b506001600160a01b031660009081526001602081815260409283902083516101008082018652825482529382015492810192909252600281015493820193909352600383015460ff80821660608401529281048316151560808301526201000081048316151560a083015263010000009004909116151560c082015260049091015460e082015290565b60606000600a546001600160401b0381111561166e5761166e61466c565b604051908082528060200260200182016040528015611697578160200160208202803683370190505b50905060005b600a548110156117005760008181526008602052604090205482516001600160a01b03909116908390839081106116d6576116d661473a565b6001600160a01b0390921660209283029190910190910152806116f881614766565b91505061169d565b50919050565b61170e6120a1565b6001600160a01b038216600090815260016020526040902081906111e88282614880565b6001600160a01b03811660009081526001602052604081206114689061320a565b606060006007546001600160401b038111156117715761177161466c565b60405190808252806020026020018201604052801561179a578160200160208202803683370190505b50905060005b6007548110156117005760008181526006602052604090205482516001600160a01b03909116908390839081106117d9576117d961473a565b6001600160a01b0390921660209283029190910190910152806117fb81614766565b9150506117a0565b61180b613ed7565b611813612056565b836001600160a01b0316856001600160a01b031614156118336014612085565b906118515760405162461bcd60e51b81526004016105689190614639565b50600f548210801561186d5750676765c793fa10079d601b1b82115b6118776013612085565b906118955760405162461bcd60e51b81526004016105689190614639565b506001600160a01b0385166000908152600160205260408120906118b9858561325e565b9050600073__$4704719058cb47f66e81a2e55cafd4efea$__6384a5af068a8a85600160008054906101000a90046001600160a01b03166001600160a01b031663fca513a86040518163ffffffff1660e01b8152600401602060405180830381865afa15801561192d573d6000803e3d6000fd5b505050506040513d601f19601f8201168201806040525081019061195191906145d4565b60405160e087901b6001600160e01b03191681526001600160a01b039586166004820152938516602485015260448401929092526064830152909116608482015260a401602060405180830381865af41580156119b2573d6000803e3d6000fd5b505050506040513d601f19601f820116820180604052508101906119d6919061477f565b6001600160a01b038a8116600090815260016020526040808220928b16825290819020905163edc9b75b60e01b81526004810192909252602482018690526044820152606481018890526084810182905290915073__$21c34b8e29a99d314827d472f0e1c85fe6$__9063edc9b75b9060a40160006040518083038186803b158015611a6157600080fd5b505af4158015611a75573d6000803e3d6000fd5b50611a8f925050506001600160a01b038a1633308961284f565b611a988361252f565b6008830154600584015460405163b3f1c93d60e01b81526001600160a01b039092169163b3f1c93d91611ae491339130918791600160801b90046001600160801b031690600401614842565b6020604051808303816000875af1158015611b03573d6000803e3d6000fd5b505050506040513d601f19601f82011682018060405250810190611b27919061494b565b506007830154611b4d9084908a90600160281b90046001600160a01b03166000856125e9565b6007830154604051634efecaa560e01b8152600160281b9091046001600160a01b031690634efecaa590611b879030908590600401614829565b6020604051808303816000875af1158015611ba6573d6000803e3d6000fd5b505050506040513d601f19601f82011682018060405250810190611bca919061477f565b506000604051806101400160405280336001600160a01b031681526020018b6001600160a01b031681526020018a6001600160a01b03168152602001896001600160a01b03168152602001888152602001838152602001828152602001600e5481526020016004548152602001600115158152509450611c4985613306565b5050505095945050505050565b611c5e612056565b6001600160a01b03868116600090815260016020526040902060070154600160281b9004163314611c8f6012612085565b90611cad5760405162461bcd60e51b81526004016105689190614639565b50611d5885600160026000896001600160a01b03166001600160a01b03168152602001908152602001600020600660075460008054906101000a90046001600160a01b03166001600160a01b031663fca513a86040518163ffffffff1660e01b8152600401602060405180830381865afa158015611d2f573d6000803e3d6000fd5b505050506040513d601f19601f82011682018060405250810190611d5391906145d4565b6135b8565b6001600160a01b038087166000908152600160205260409020600a01549086811690861614611e3557611d8b8385612843565b600003611dd9576001600160a01b03808716600081815260026020908152604080832086845291829052808320805460ff191690555190938b1691600080516020614b1883398151915291a3505b81158015611de657508315155b15611e35576001600160a01b03808616600081815260026020908152604080832086845291829052808320805460ff191660011790555190938b1691600080516020614b3883398151915291a3505b50505050505050565b611e46612056565b6001600160a01b038316600090815260016020526040908190209051630eca322b60e01b8152600481018290526024810184905273__$21c34b8e29a99d314827d472f0e1c85fe6$__90630eca322b9060440160006040518083038186803b158015611eb157600080fd5b505af4158015611ec5573d6000803e3d6000fd5b505050506007810154600160281b90046001600160a01b0316611ee78261252f565b611ef58286838760006125e9565b611f0a6001600160a01b03861633308761284f565b611f1e6001600160a01b03861682866128ba565b6005820154604051630ab714fb60e11b81526000916001600160a01b0384169163156e29f691611f609188918a916001600160801b03909116906004016147ff565b6020604051808303816000875af1158015611f7f573d6000803e3d6000fd5b505050506040513d601f19601f82011682018060405250810190611fa3919061494b565b90508015611ff8576001600160a01b038085166000818152600260209081526040808320600a8901548452909152808220805460ff19166001179055519192891691600080516020614b388339815191529190a35b6120018461360c565b836001600160a01b0316866001600160a01b03167f7cfff908a4b583f36430b25d75964c458d8ede8a99bd61be750e97ee1b2f3a963388604051612046929190614829565b60405180910390a3505050505050565b600b5460ff1615612067600c612085565b906114e55760405162461bcd60e51b81526004016105689190614639565b606061146882603481111561209c5761209c614798565b61368d565b60005460405163747e301f60e01b815233916001600160a01b03169063747e301f906120d19030906004016145c0565b602060405180830381865afa1580156120ee573d6000803e3d6000fd5b505050506040513d601f19601f8201168201806040525081019061211291906145d4565b6001600160a01b0316146120676010612085565b80516001600160a01b03908116600090815260016020908152604080832081860151851684526002835281842084548351631f94a27560e31b81529351929691959491169263fca513a892600480830193928290030181865afa158015612191573d6000803e3d6000fd5b505050506040513d601f19601f820116820180604052508101906121b591906145d4565b6003840154909150600090612255906121d29060ff16600a614a4c565b6060870151875160405163b3596f0760e01b815261224f92916001600160a01b0388169163b3596f0791612208916004016145c0565b602060405180830381865afa158015612225573d6000803e3d6000fd5b505050506040513d601f19601f82011682018060405250810190612249919061477f565b9061378d565b90613799565b8551604080880151606089015160808a0151600754935163023b6c0960e41b81526001600160a01b039586166004820152602481018b9052928516604484015260648301919091526084820185905260a4820152600160c482015260e48101879052600661010482015261012481019190915290841661014482015290915073__$21c34b8e29a99d314827d472f0e1c85fe6$__906323b6c090906101640160006040518083038186803b15801561230c57600080fd5b505af4158015612320573d6000803e3d6000fd5b5050505061232d8461252f565b6008840154602086015160408088015160608901516005890154925163b3f1c93d60e01b81526000956001600160a01b03169463b3f1c93d946123889491939192600160801b9091046001600160801b031690600401614842565b6020604051808303816000875af11580156123a7573d6000803e3d6000fd5b505050506040513d601f19601f820116820180604052508101906123cb919061494b565b905080156123f657600a850154600090815260018581016020526040909120805460ff191690911790555b61242586600001518760a0015160008960c0015161241557600061241b565b89606001515b89939291906125e9565b8560c00151156124ae578560a001516001600160a01b0316634efecaa5876020015188606001516040518363ffffffff1660e01b8152600401612469929190614829565b6020604051808303816000875af1158015612488573d6000803e3d6000fd5b505050506040513d601f19601f820116820180604052508101906124ac919061477f565b505b60408681015187516020808a01516060808c01516080808e015160068e015489516001600160a01b0396871681529687019390935297850197909752600160801b90046001600160801b0316908301529283169392909116917f4bc4b08d677fc59195d56e346dcb5cc5dc3b78b90d59f5d36740ae1b3d225db89101612046565b60088101546040805163b1bf962d60e01b815290516000926001600160a01b03169163b1bf962d9160048083019260209291908290030181865afa15801561257b573d6000803e3d6000fd5b505050506040513d601f19601f8201168201806040525081019061259f919061477f565b600583015460078401549192506001600160801b03600160801b820481169291169064ffffffffff166000806125d887878688876137a5565b91509150611e3587878785856138db565b6126146040518060800160405280600081526020016000815260200160008152602001600081525090565b600586015460088701546040805163b1bf962d60e01b815290516126a193600160801b90046001600160801b0316926001600160a01b03169163b1bf962d9160048083019260209291908290030181865afa158015612677573d6000803e3d6000fd5b505050506040513d601f19601f8201168201806040525081019061269b919061477f565b9061325e565b6060820181905260098701546004808901546040516340e464b960e11b81526001600160a01b038a81169382019390935288831660248201526044810188905260648101879052608481019490945260a484015216906381c8c9729060c4016040805180830381865afa15801561271c573d6000803e3d6000fd5b505050506040513d601f19601f820116820180604052508101906127409190614a5b565b6040830152602082018190526001600160801b0310156127606018612085565b9061277e5760405162461bcd60e51b81526004016105689190614639565b5060408101516001600160801b0310156127986019612085565b906127b65760405162461bcd60e51b81526004016105689190614639565b506020818101516040808401516001600160801b03808416600160801b82841681029190911760068d015560058c0154845195865295850192909252848116848401529304909216606082015290516001600160a01b038716917f4063a2df84b66bb796eb32622851d833e57b2c4292900c18f963af8808b13e35919081900360800190a2505050505050565b60006111088284614a7f565b6040516001600160a01b03808516602483015283166044820152606481018290526111e89085906323b872dd60e01b906084015b60408051601f198184030181529190526020810180516001600160e01b03166001600160e01b0319909316929092179091526139ef565b610ddf8363a9059cbb60e01b8484604051602401612883929190614829565b6001600160a01b03163b151590565b600754600c5481106128fa600f612085565b906129185760405162461bcd60e51b81526004016105689190614639565b506001600160a01b0382166000908152600160205260408120600a015415158061297757506000805260066020527f54cdd369e4e8a8515e52ca72ec816c2101831ad1f18bf44102ed171459c9b4f8546001600160a01b038481169116145b905080610ddf576001600160a01b0383166000818152600160208181526040808420600a01879055868452600690915290912080546001600160a01b0319169092179091556129c7908390614a96565b600755505050565b60006111088284614a96565b600781015460009064ffffffffff9081169042168103612a0e57505060050154600160801b90046001600160801b031690565b60058301546006840154600091612a3f916001600160801b03600160801b9283900481169261269b92041685613ac1565b949350505050565b6000808080806001815b88811015612ab057600081815260208c9052604090205460ff16151560011480612a90575060008181526001808d0160205260409091205460ff161515145b15612a9e5760009150612ab0565b80612aa881614766565b915050612a51565b508015612ad05760008060008060001995509550955095509550506131c8565b50612b6e604051806102400160405280600081526020016000815260200160008152602001600081526020016000815260200160008152602001600081526020016000815260200160008152602001600081526020016000815260200160008152602001600081526020016000815260200160001515815260200160006001600160a01b031681526020016000151581526020016000151581525090565b600060e08201525b878160e0015110156131275760e0810151600090815260208b9052604090205460ff1680612bb9575060e0810151600090815260018b01602052604090205460ff165b1561310f578860008260e00151815260200190815260200160002060009054906101000a90046001600160a01b0316816101e001906001600160a01b031690816001600160a01b03168152505060008b6000836101e001516001600160a01b03166001600160a01b031681526020019081526020016000206040518061014001604052908160008201604051806101000160405290816000820154815260200160018201548152602001600282015481526020016003820160009054906101000a900460ff1660ff1660ff1681526020016003820160019054906101000a900460ff161515151581526020016003820160029054906101000a900460ff161515151581526020016003820160039054906101000a900460ff1615151515815260200160048201548152505081526020016005820160009054906101000a90046001600160801b03166001600160801b03166001600160801b031681526020016005820160109054906101000a90046001600160801b03166001600160801b03166001600160801b031681526020016006820160009054906101000a90046001600160801b03166001600160801b03166001600160801b031681526020016006820160109054906101000a90046001600160801b03166001600160801b03166001600160801b031681526020016007820160009054906101000a900464ffffffffff1664ffffffffff1664ffffffffff1681526020016007820160059054906101000a90046001600160a01b03166001600160a01b03166001600160a01b031681526020016008820160009054906101000a90046001600160a01b03166001600160a01b03166001600160a01b031681526020016009820160009054906101000a90046001600160a01b03166001600160a01b03166001600160a01b03168152602001600a8201548152505090508060000151600001518260a00181815250508060000151602001518260c001818152505080600001516060015160ff168260800181815250508160800151600a612eb09190614aae565b60208301526101e082015160405163b3596f0760e01b81526001600160a01b038a169163b3596f0791612ee691906004016145c0565b602060405180830381865afa158015612f03573d6000803e3d6000fd5b505050506040513d601f19601f82011682018060405250810190612f27919061477f565b825260c082015115801590612f4f575060e0820151600090815260208c9052604090205460ff165b1561304b578060c001516001600160a01b03166370a082318e6040518263ffffffff1660e01b8152600401612f8491906145c0565b602060405180830381865afa158015612fa1573d6000803e3d6000fd5b505050506040513d601f19601f82011682018060405250810190612fc5919061477f565b6040830181905260208301518351600092612fe4929161224f9161378d565b610120840151909150612ff790826129cf565b61012084015260a083015161301d9061301190839061378d565b610160850151906129cf565b61016084015260c08301516130439061303790839061378d565b610180850151906129cf565b610180840152505b60e0820151600090815260018c01602052604090205460ff161561310d578060e001516001600160a01b03166370a082318e6040518263ffffffff1660e01b815260040161309991906145c0565b602060405180830381865afa1580156130b6573d6000803e3d6000fd5b505050506040513d601f19601f820116820180604052508101906130da919061477f565b6060830181905260208301518351613106926130fa929161224f9161378d565b610140840151906129cf565b6101408301525b505b60e0810180519061311f82614766565b905250612b76565b60008161012001511161313b576000613150565b61012081015161016082015161315091613799565b61016082015261012081015161316757600061317c565b61012081015161018082015161317c91613799565b610180820181905261012082015161014083015161319992613ace565b610100820181905261012082015161014083015161016084015161018090940151919850965091945090925090505b965096509650965096915050565b6000806131e38584613af5565b9050838110156131f7576000915050611108565b6132018185612843565b95945050505050565b600781015460009064ffffffffff9081169042168103613236575050600501546001600160801b031690565b60058301546006840154600091612a3f916001600160801b039182169161269b911685613b6d565b600082158061326b575081155b1561327857506000611468565b8161328f6002676765c793fa10079d601b1b614ad0565b61329b90600019614a7f565b6132a59190614ad0565b8311156132b26004612085565b906132d05760405162461bcd60e51b81526004016105689190614639565b50676765c793fa10079d601b1b6132e8600282614ad0565b6132f28486614ae4565b6132fc9190614a96565b6111089190614ad0565b8060036000600454815260200190815260200160002060008201518160000160006101000a8154816001600160a01b0302191690836001600160a01b0316021790555060208201518160010160006101000a8154816001600160a01b0302191690836001600160a01b0316021790555060408201518160020160006101000a8154816001600160a01b0302191690836001600160a01b0316021790555060608201518160030160006101000a8154816001600160a01b0302191690836001600160a01b031602179055506080820151816004015560a0820151816005015560c0820151816006015560e0820151816007015561010082015181600801556101208201518160090160006101000a81548160ff021916908315150217905550905050600454600360006004548152602001908152602001600020600801819055506005600082600001516001600160a01b03166001600160a01b031681526020019081526020016000208190806001815401808255809150506001900390600052602060002090600a020160009091909190915060008201518160000160006101000a8154816001600160a01b0302191690836001600160a01b0316021790555060208201518160010160006101000a8154816001600160a01b0302191690836001600160a01b0316021790555060408201518160020160006101000a8154816001600160a01b0302191690836001600160a01b0316021790555060608201518160030160006101000a8154816001600160a01b0302191690836001600160a01b031602179055506080820151816004015560a0820151816005015560c0820151816006015560e0820151816007015561010082015181600801556101208201518160090160006101000a81548160ff021916908315150217905550505060045460016135b29190614a96565b60045550565b60006135c8878787878787612a47565b945050505050670de0b6b3a76400008110156135e4601e612085565b906136025760405162461bcd60e51b81526004016105689190614639565b5050505050505050565b6001600160a01b03811660009081526009602052604090205460ff16151560011480613689576001600160a01b0382166000818152600960209081526040808320805460ff19166001908117909155600a805485526008909352922080546001600160a01b031916909317909255905461368591614a96565b600a555b5050565b6060816000036136b45750506040805180820190915260018152600360fc1b602082015290565b8160005b81156136de57806136c881614766565b91506136d79050600a83614ad0565b91506136b8565b6000816001600160401b038111156136f8576136f861466c565b6040519080825280601f01601f191660200182016040528015613722576020820181803683370190505b5090505b8415612a3f57613737600183614a7f565b9150613744600a86614b03565b61374f906030614a96565b60f81b8183815181106137645761376461473a565b60200101906001600160f81b031916908160001a905350613786600a86614ad0565b9450613726565b60006111088284614ae4565b60006111088284614ad0565b600685015460009081906001600160801b0316858582156138b55760006137cc8488613b6d565b90506137d8818a61325e565b92506001600160801b038311156137ef6015612085565b9061380d5760405162461bcd60e51b81526004016105689190614639565b5060058b0180546001600160801b0319166001600160801b03851617905589156138b35760068b015460009061385390600160801b90046001600160801b031689613ac1565b905061385f818a61325e565b92506001600160801b038311156138766016612085565b906138945760405162461bcd60e51b81526004016105689190614639565b505060058b0180546001600160801b03808516600160801b0291161790555b505b600799909901805464ffffffffff19164264ffffffffff16179055989650505050505050565b61390d6040518060a0016040528060008152602001600081526020016000815260200160008152602001600081525090565b60048601546080820181905260000361392657506107ee565b613930858561325e565b602082015261393f858361325e565b80825260208201516139519190612843565b6040820181905260808201516139679190613af5565b60608201819052156139e75760078601546060820151604051637df5bd3b60e01b8152600481019190915260248101859052600160281b9091046001600160a01b031690637df5bd3b90604401600060405180830381600087803b1580156139ce57600080fd5b505af11580156139e2573d6000803e3d6000fd5b505050505b505050505050565b6000613a44826040518060400160405280602081526020017f5361666545524332303a206c6f772d6c6576656c2063616c6c206661696c6564815250856001600160a01b0316613bb19092919063ffffffff16565b805190915015610ddf5780806020019051810190613a62919061494b565b610ddf5760405162461bcd60e51b815260206004820152602a60248201527f5361666545524332303a204552433230206f7065726174696f6e20646964206e6044820152691bdd081cdd58d8d9595960b21b6064820152608401610568565b6000611108838342613bc0565b600082600003613ae15750600019611108565b612a3f83613aef8685613af5565b90613cbf565b6000821580613b02575081155b15613b0f57506000611468565b81613b1d6002612710614ad0565b613b2990600019614a7f565b613b339190614ad0565b831115613b406004612085565b90613b5e5760405162461bcd60e51b81526004016105689190614639565b506127106132e8600282614ad0565b600080613b814264ffffffffff8516612843565b9050612a3f676765c793fa10079d601b1b6301e13380613ba1878561378d565b613bab9190614ad0565b906129cf565b6060612a3f8484600085613d6f565b600080613bd48364ffffffffff8616612843565b905080600003613bf257676765c793fa10079d601b1b915050611108565b6000613bff600183614a7f565b9050600060028311613c12576000613c1d565b613c1d600284614a7f565b90506000613c2f6301e1338089614ad0565b90506000613c3d828061325e565b90506000613c4b828461325e565b905060006002613c5f846122498a8a61378d565b613c699190614ad0565b905060006006613c7f8461224989818d8d61378d565b613c899190614ad0565b9050613caf81613bab8481613c9e8a8e61378d565b676765c793fa10079d601b1b613bab565b9c9b505050505050505050505050565b6000811515613cce6005612085565b90613cec5760405162461bcd60e51b81526004016105689190614639565b506000613cfa600284614ad0565b9050670de0b6b3a7640000613d1182600019614a7f565b613d1b9190614ad0565b841115613d286004612085565b90613d465760405162461bcd60e51b81526004016105689190614639565b508281613d5b670de0b6b3a764000087614ae4565b613d659190614a96565b612a3f9190614ad0565b606082471015613dd05760405162461bcd60e51b815260206004820152602660248201527f416464726573733a20696e73756666696369656e742062616c616e636520666f6044820152651c8818d85b1b60d21b6064820152608401610568565b613dd9856128d9565b613e255760405162461bcd60e51b815260206004820152601d60248201527f416464726573733a2063616c6c20746f206e6f6e2d636f6e74726163740000006044820152606401610568565b600080866001600160a01b03168587604051613e41919061461d565b60006040518083038185875af1925050503d8060008114613e7e576040519150601f19603f3d011682016040523d82523d6000602084013e613e83565b606091505b5091509150613e93828286613e9e565b979650505050505050565b60608315613ead575081611108565b825115613ebd5782518084602001fd5b8160405162461bcd60e51b81526004016105689190614639565b60405180610140016040528060006001600160a01b0316815260200160006001600160a01b0316815260200160006001600160a01b0316815260200160006001600160a01b0316815260200160008152602001600081526020016000815260200160008152602001600081526020016000151581525090565b604051806101400160405280613f64613fab565b815260006020820181905260408201819052606082018190526080820181905260a0820181905260c0820181905260e0820181905261010082018190526101209091015290565b604051806101000160405280600081526020016000815260200160008152602001600060ff168152602001600015158152602001600015158152602001600015158152602001600081525090565b6001600160a01b03811681146114e557600080fd5b80151581146114e557600080fd5b600080600080600060a0868803121561403457600080fd5b853561403f81613ff9565b9450602086013561404f81613ff9565b9350604086013561405f81613ff9565b92506060860135915060808601356140768161400e565b809150509295509295909350565b6001600160a01b03169052565b61409c828251614084565b60208101516140ae6020840182614084565b5060408101516140c16040840182614084565b5060608101516140d46060840182614084565b506080810151608083015260a081015160a083015260c081015160c083015260e081015160e0830152610100808201518184015250610120808201516111e88285018215159052565b6020808252825182820181905260009190848201906040850190845b818110156141605761414c838551614091565b928401926101409290920191600101614139565b50909695505050505050565b6000806040838503121561417f57600080fd5b823561418a81613ff9565b9150602083013561419a81613ff9565b809150509250929050565b600080600080608085870312156141bb57600080fd5b84356141c681613ff9565b9350602085013592506040850135915060608501356141e481613ff9565b939692955090935050565b60006020828403121561420157600080fd5b813561110881613ff9565b80518252602081015160208301526040810151604083015260ff606082015116606083015260808101511515608083015260a0810151151560a083015260c0810151151560c083015260e081015160e08301525050565b6001600160801b03169052565b60006102208201905061428482845161420c565b602083015161010061429881850183614263565b604085015191506101206142ae81860184614263565b606086015192506142c3610140860184614263565b608086015192506142d8610160860184614263565b60a086015164ffffffffff1661018086015260c086015192506142ff6101a0860184614084565b60e086015192506143146101c0860184614084565b8186015192506143286101e0860184614084565b8086015161020086015250505092915050565b6000806040838503121561434e57600080fd5b823561435981613ff9565b9150602083013561419a8161400e565b60008060006060848603121561437e57600080fd5b833561438981613ff9565b92506020840135915060408401356143a081613ff9565b809150509250925092565b600080600080608085870312156143c157600080fd5b84356143cc81613ff9565b935060208501356143dc81613ff9565b925060408501356143ec81613ff9565b915060608501356141e481613ff9565b6000806040838503121561440f57600080fd5b823561441a81613ff9565b946020939093013593505050565b60006020828403121561443a57600080fd5b5035919050565b60006020828403121561445357600080fd5b81356111088161400e565b6101008101611468828461420c565b6020808252825182820181905260009190848201906040850190845b818110156141605783516001600160a01b031683529284019291840191600101614489565b6000808284036101208112156144c357600080fd5b83356144ce81613ff9565b9250610100601f19820112156144e357600080fd5b506020830190509250929050565b600080600080600060a0868803121561450957600080fd5b853561451481613ff9565b9450602086013561452481613ff9565b9350604086013561453481613ff9565b94979396509394606081013594506080013592915050565b61014081016114688284614091565b60008060008060008060c0878903121561457457600080fd5b863561457f81613ff9565b9550602087013561458f81613ff9565b9450604087013561459f81613ff9565b959894975094956060810135955060808101359460a0909101359350915050565b6001600160a01b0391909116815260200190565b6000602082840312156145e657600080fd5b815161110881613ff9565b60005b8381101561460c5781810151838201526020016145f4565b838111156111e85750506000910152565b6000825161462f8184602087016145f1565b9190910192915050565b60208152600082518060208401526146588160408501602087016145f1565b601f01601f19169190910160400192915050565b634e487b7160e01b600052604160045260246000fd5b6000806040838503121561469557600080fd5b8251915060208301516001600160401b03808211156146b357600080fd5b818501915085601f8301126146c757600080fd5b8151818111156146d9576146d961466c565b604051601f8201601f19908116603f011681019083821181831017156147015761470161466c565b8160405282815288602084870101111561471a57600080fd5b61472b8360208301602088016145f1565b80955050505050509250929050565b634e487b7160e01b600052603260045260246000fd5b634e487b7160e01b600052601160045260246000fd5b60006001820161477857614778614750565b5060010190565b60006020828403121561479157600080fd5b5051919050565b634e487b7160e01b600052602160045260246000fd5b8581526020810185905260a08101600285106147da57634e487b7160e01b600052602160045260246000fd5b60408201949094526001600160a01b0392909216606083015260809091015292915050565b6001600160a01b0393909316835260208301919091526001600160801b0316604082015260600190565b6001600160a01b03929092168252602082015260400190565b6001600160a01b03948516815292909316602083015260408201526001600160801b03909116606082015260800190565b600081356114688161400e565b81358155602082013560018201556040820135600282015560038101606083013560ff81168082146148b157600080fd5b825460ff1916178255506148e46148ca60808501614873565b82805461ff00191691151560081b61ff0016919091179055565b61490f6148f360a08501614873565b82805462ff0000191691151560101b62ff000016919091179055565b61493c61491e60c08501614873565b82805463ff000000191691151560181b63ff00000016919091179055565b5060e082013560048201555050565b60006020828403121561495d57600080fd5b81516111088161400e565b600181815b808511156149a357816000190482111561498957614989614750565b8085161561499657918102915b93841c939080029061496d565b509250929050565b6000826149ba57506001611468565b816149c757506000611468565b81600181146149dd57600281146149e757614a03565b6001915050611468565b60ff8411156149f8576149f8614750565b50506001821b611468565b5060208310610133831016604e8410600b8410161715614a26575081810a611468565b614a308383614968565b8060001904821115614a4457614a44614750565b029392505050565b600061110860ff8416836149ab565b60008060408385031215614a6e57600080fd5b505080516020909101519092909150565b600082821015614a9157614a91614750565b500390565b60008219821115614aa957614aa9614750565b500190565b600061110883836149ab565b634e487b7160e01b600052601260045260246000fd5b600082614adf57614adf614aba565b500490565b6000816000190483118215151615614afe57614afe614750565b500290565b600082614b1257614b12614aba565b50069056fe44c58d81365b66dd4b1a7f36c25aa97b8c71c361ee4937adc1a00000227db5dd00058a56ea94653cdf4f152d227ace22d4c00ad99e2a43f58cb7d9e3feb295f2a2646970667358221220ab533b6eab9c8995815f82c933b87e759b4a9aef0dbb1f682cbbcb69af1099f264736f6c634300080e0033",
  "linkReferences": {
    "contracts/Library/Logic/GenericLogic.sol": {
      "GenericLogic": [
        {
          "length": 20,
          "start": 4938
        },
        {
          "length": 20,
          "start": 6528
        }
      ]
    },
    "contracts/Library/Logic/ReserveLogic.sol": {
      "ReserveLogic": [
        {
          "length": 20,
          "start": 4691
        }
      ]
    },
    "contracts/Library/Logic/ValidationLogic.sol": {
      "ValidationLogic": [
        {
          "length": 20,
          "start": 2709
        },
        {
          "length": 20,
          "start": 3361
        },
        {
          "length": 20,
          "start": 3920
        },
        {
          "length": 20,
          "start": 4859
        },
        {
          "length": 20,
          "start": 6893
        },
        {
          "length": 20,
          "start": 7997
        },
        {
          "length": 20,
          "start": 9111
        }
      ]
    }
  },
  "deployedLinkReferences": {
    "contracts/Library/Logic/GenericLogic.sol": {
      "GenericLogic": [
        {
          "length": 20,
          "start": 4745
        },
        {
          "length": 20,
          "start": 6335
        }
      ]
    },
    "contracts/Library/Logic/ReserveLogic.sol": {
      "ReserveLogic": [
        {
          "length": 20,
          "start": 4498
        }
      ]
    },
    "contracts/Library/Logic/ValidationLogic.sol": {
      "ValidationLogic": [
        {
          "length": 20,
          "start": 2516
        },
        {
          "length": 20,
          "start": 3168
        },
        {
          "length": 20,
          "start": 3727
        },
        {
          "length": 20,
          "start": 4666
        },
        {
          "length": 20,
          "start": 6700
        },
        {
          "length": 20,
          "start": 7804
        },
        {
          "length": 20,
          "start": 8918
        }
      ]
    }
  }
}